:020000040000FA
:0600000007EF18F01200EA
:020006001200E6
:0600080020EF00F01200E1
:02000E000400EC
:1000100017320000FC000000040000001532000050
:100020007303000002000000D5310000B2000000A0
:100030004000000050300000000100008501000079
:10004000DACFE4FFE2CFDAFFE9CFE4FFEACFE4FF63
:10005000F6CFE4FFF7CFE4FFF5CFE4FFF3CFE4FF03
:10006000F4CFE4FFFACFE4FF00EE00F0140EE80452
:1000700003E3EECFE4FFFBD700EE14F00C0EE80430
:1000800003E3EECFE4FFFBD7E6529EA00BD09E9099
:10009000C10EE66EE00EE66E8CEC17F0E552E5520E
:1000A000FFD816D9E55200EE1FF00C0EE80403E36A
:1000B000E5CFEDFFFBD700EE13F0140EE80403E3E9
:1000C000E5CFEDFFFBD7E5CFFAFFE5CFF4FFE5CFB6
:1000D000F3FFE5CFF5FFE5CFF7FFE5CFF6FFE5CF7F
:1000E000EAFFE5CFE9FFE5CFDAFF1100D9CFE6FF60
:1000F000E1CFD9FF0D0EE126DE6ADE6ADE6ADD6A37
:10010000DD52DD52080EDB6A090EDB6A0B0EDB6A7C
:100110000C0EDB6AABD83DD876D8320EE66EE66AB6
:100120008CEC07F0E552E552280EE66E3BEC0EF043
:10013000E552320EE66EE66A8CEC07F0E552E552C7
:100140000C0EE66E9AEC0EF0E552B9D8D08EF28E17
:10015000F28C660EE66E020EE66E210EE66EE1ECA5
:1001600007F0E552E552E552080EE66E040EE66E23
:100170007AEC14F0E552E5527ED8FFD70D0EE15C23
:1001800003E200D0E16AE552E16EE552E7CFD9FF24
:100190001200D9CFE6FFE1CFD9FF060EE126DF6AD4
:1001A000010EDB6A020EDB6A030EDB6A040EDB6AF9
:1001B000050EDB6A23EC18F0DE52CC0EDD6E800EED
:1001C000F36E020EF3CFDBFF050EF36E040EF3CFDA
:1001D000DBFFDBCFE6FF020EDBCFE6FF010EDBCF5E
:1001E000E6FF34EC17F0E552E552E5529E9CF28CA6
:1001F0009D8C060EE15C02E2E16AE552E16EE55299
:10020000E7CFD9FF1200D9CFE6FFE1CFD9FF040E27
:10021000E126DF6A010EDB6A020EDB6A030EDB6A8F
:100220004F0EAB16AC9ACF0E9D16080EDF6EDE5247
:10023000790EDD6E010EDBCFE6FFE66ADFCFE6FF6B
:10024000AEEC16F0E552E552E552020EDB6ADBCF6A
:10025000E6FFD6EC17F0E552040EE15C02E2E16A3B
:10026000E552E16EE552E7CFD9FF1200D388D38A79
:10027000D38C9B8C1200000EE66EE66A8CEC17F0B5
:10028000E552E552C40EE66E6BEC17F0E552C10E76
:10029000E66EE00EE66E8CEC17F0E552E5521200C9
:1002A00002016E2B000E6F230A0E6E1901E16F51D1
:1002B00005E1C8EC14F002016E6B6F6B12004BC1CC
:1002C000E6FF49DAE5524BC1E6FF74DAE552120067
:1002D000D9CFE6FFE1CFD9FFE652DF6ADF6A060E2B
:1002E000DF5C01E38CD0DF502F0DF3CFE9FFF4CFBB
:1002F000EAFF4C0EE926010EEA222D0EE926000E39
:10030000EA22EECF14F0EFCF15F0DF502F0DF3CF30
:10031000E9FFF4CFEAFF4C0EE926010EEA222B0E8C
:10032000E926000EEA22EECF16F0EFCF17F01650B6
:10033000141802E11750151850E1DF502F0DF3CFBC
:10034000E9FFF4CFEAFF4C0EE926010EEA22EF5056
:1003500033E0050EDF5C05E0DFCFE6FFA4DBE5520E
:100360002BD0DF502F0DF3CFE9FFF4CFEAFF4C0E77
:10037000E926010EEA22160EE926000EEA22EECF49
:1003800014F0EECF15F0EECF16F0EFCF17F014C04B
:1003900005F015C006F016C007F017C008F000EC15
:1003A00013F00750EA6A400FE96E010EEA22EF509F
:1003B000E66EA8EC17F0E552DF502F0DF3CFE9FF02
:1003C000F4CFEAFF4C0EE926010EEA222D0EE926B3
:1003D000000EEA22EE6AED6A10D0DF502F0DF3CF47
:1003E000E9FFF4CFEAFF4C0EE926010EEA222D0EBA
:1003F000E926000EEA22EE2AEF22DF2A70D7E55224
:10040000E552E7CFD9FF1200D9CFE6FFE1CFD9FF00
:10041000040EE126FD0EDB50020801E092D1FE0E33
:10042000DB50070A01E15DD1010A01E1B7D0030AFF
:1004300012E0010A01E083D101014B2B060E4B5D56
:1004400001E14B6B4BC1E6FF86D9E5524BC1E6FF9C
:10045000B1D9E55274D14BC1E9FFEA6AE9BEEA6855
:100460002F0EEA02F3CFEAFFE902F3CFE9FFF450DF
:10047000EA264C0EE926010EEA22160EE926000EA7
:10048000EA22EECF14F0EECF15F0EECF16F0EFCF5C
:1004900017F04BC1E9FFEA6AE9BEEA682F0EEA02EB
:1004A000F3CFEAFFE902F3CFE9FFF450EA264C0E5E
:1004B000E926010EEA221A0EE926000EEA22EECF04
:1004C00018F0EECF19F0EECF1AF0EFCF1BF018C0F6
:1004D0000AF019C00BF01AC00CF01BC00DF014C0CC
:1004E00005F015C006F016C007F017C008F08DEC37
:1004F00013F0010A4EE14BC1E9FFEA6AE9BEEA687E
:100500002F0EEA02F3CFEAFFE902F3CFE9FFF4503E
:10051000EA264C0EE926010EEA22220EE926000EFA
:10052000EA22EECF14F0EECF15F0EECF16F0EFCFBB
:1005300017F04BC1E9FFEA6AE9BEEA682F0EEA024A
:10054000F3CFEAFFE902F3CFE9FFF450EA264C0EBD
:10055000E926010EEA22160EE926000EEA22EECF67
:1005600005F0EECF06F0EECF07F0EFCF08F014C0A5
:100570000AF015C00BF016C00CF017C00DF0FCEC23
:1005800011F008C0EDFF07C0EDFF06C0EDFF05C08C
:10059000EFFF4BC1E6FF0ED9E552D1D04BC1E9FFC9
:1005A000EA6AE9BEEA682F0EEA02F3CFEAFFE9023F
:1005B000F3CFE9FFF450EA264C0EE926010EEA22B9
:1005C000160EE926000EEA22EECF14F0EECF15F05B
:1005D000EECF16F0EFCF17F04BC1E9FFEA6AE9BEA4
:1005E000EA682F0EEA02F3CFEAFFE902F3CFE9FF50
:1005F000F450EA264C0EE926010EEA221E0EE926E8
:10060000000EEA22EECF18F0EECF19F0EECF1AF07E
:10061000EFCF1BF018C00AF019C00BF01AC00CF095
:100620001BC00DF014C005F015C006F016C007F091
:1006300017C008F096EC13F0010A4EE14BC1E9FF38
:10064000EA6AE9BEEA682F0EEA02F3CFEAFFE9029E
:10065000F3CFE9FFF450EA264C0EE926010EEA2218
:10066000220EE926000EEA22EECF14F0EECF15F0AE
:10067000EECF16F0EFCF17F04BC1E9FFEA6AE9BE03
:10068000EA682F0EEA02F3CFEAFFE902F3CFE9FFAF
:10069000F450EA264C0EE926010EEA22160EE9264F
:1006A000000EEA22EECF05F0EECF06F0EECF07F017
:1006B000EFCF08F014C00AF015C00BF016C00CF014
:1006C00017C00DF0FDEC11F008C0EDFF07C0EDFF05
:1006D00006C0EDFF05C0EFFF4BC1E6FF6BD8E5524A
:1006E0002ED04BC1E9FFEA6AE9BEEA682F0EEA02A2
:1006F000F3CFEAFFE902F3CFE9FFF450EA264C0E0C
:10070000E926010EEA22EF1CE66E4BC1E9FFEA6A18
:10071000E9BEEA682F0EEA02F3CFEAFFE902F3CF5F
:10072000E9FFF450EA264C0EE926010EEA22E552D2
:10073000E750EF6E4BC1E6FF3DD8E55200D09398ED
:10074000939A040EE15C02E2E16AE552E16EE55241
:10075000E7CFD9FF1200D9CFE6FFE1CFD9FFFE0ED8
:10076000DBCF4BF1E66AE1EC0FF0E552FE0EDBCF9A
:10077000E9FFEA6AE9BEEA682F0EEA02F3CFEAFF70
:10078000E902F3CFE9FFF450EA264C0EE926010E08
:10079000EA22EE52E9CF14F0EACF15F014C0E6FFDA
:1007A00015C0E6FF2EEC0FF0E552E552E552E7CF1B
:1007B000D9FF1200D9CFE6FFE1CFD9FF39EC10F015
:1007C000370EE66EE1EC0FF0E552FE0EDBCFE9FFEF
:1007D000EA6AE9BEEA682F0EEA02F3CFEAFFE9020D
:1007E000F3CFE9FFF450EA264C0EE926010EEA2287
:1007F000EF5006E02B0EE66EC1EC0EF0E55205D090
:100800002D0EE66EC1EC0EF0E552FE0EDBCFE9FFD9
:10081000EA6AE9BEEA682F0EEA02F3CFEAFFE902CC
:10082000F3CFE9FFF450EA264C0EE926010EEA2246
:10083000260EE926000EEA22EF5067E1290EE66E49
:10084000FE0EDBCFE9FFEA6AE9BEEA682F0EEA0294
:10085000F3CFEAFFE902F3CFE9FFF450EA264C0EAA
:10086000E926010EEA22160EE926000EEA22EECF54
:1008700016F0EECF17F0EECF18F0EFCF19F016C04C
:1008800005F017C006F018C007F019C008F027ECF3
:1008900013F006C014F007C015F014C0E6FF15C031
:1008A000E6FF6AEC10F0E552E552E5522F0EE66ED7
:1008B000E1EC0FF0E552FE0EDBCFE9FFEA6AE9BE9C
:1008C000EA682F0EEA02F3CFEAFFE902F3CFE9FF6D
:1008D000F450EA264C0EE926010EEA22110EE92612
:1008E000000EEA22EF50070DF3CF14F0F4CF15F00D
:1008F000000E1426010E152214C0E6FF15C0E6FFF7
:100900002EEC0FF0E552E552CAD0FE0EDBCFE9FF28
:10091000EA6AE9BEEA682F0EEA02F3CFEAFFE902CB
:10092000F3CFE9FFF450EA264C0EE926010EEA2245
:10093000260EE926000EEA22EF0457E1290EE66EA4
:10094000E66AFE0EDBCFE9FFEA6AE9BEEA682F0E2F
:10095000EA02F3CFEAFFE902F3CFE9FFF450EA2617
:100960004C0EE926010EEA22160EE926000EEA22B6
:10097000EECFE6FFEECFE6FFEECFE6FFEFCFE6FFEE
:10098000CAEC10F0146E060EE15E14502F0EE66EE7
:10099000E1EC0FF0E552FE0EDBCFE9FFEA6AE9BEBB
:1009A000EA682F0EEA02F3CFEAFFE902F3CFE9FF8C
:1009B000F450EA264C0EE926010EEA22110EE92631
:1009C000000EEA22EF50070DF3CF14F0F4CF15F02C
:1009D000000E1426010E152214C0E6FF15C0E6FF16
:1009E0002EEC0FF0E552E5525AD0FE0EDBCFE9FFB8
:1009F000EA6AE9BEEA682F0EEA02F3CFEAFFE902EB
:100A0000F3CFE9FFF450EA264C0EE926010EEA2264
:100A1000260EE926000EEA22EF50020840E12F0ED2
:100A2000E66EE1EC0FF0E552FE0EDBCFE9FFEA6A7D
:100A3000E9BEEA682F0EEA02F3CFEAFFE902F3CF3C
:100A4000E9FFF450EA264C0EE926010EEA22160EC2
:100A5000E926000EEA22EECF16F0EECF17F0EECF29
:100A600018F0EFCF19F016C005F017C006F018C047
:100A700007F019C008F000EC13F00750146E156A67
:100A8000D890143615362A0E1426010E152214C0DD
:100A9000E6FF15C0E6FF2EEC0FF0E552E552E552F9
:100AA000E7CFD9FF1200D9CFE6FFE1CFD9FF110E72
:100AB000E126DE6ADE6ADE6ADD6ADD52DD52FE0EA6
:100AC000DB502F0DF3CFE9FFF4CFEAFF4C0EE92600
:100AD000010EEA22280EE926000EEA22EECF14F0DB
:100AE000EFCF15F015C014F0156AFF0E1416000EA6
:100AF0001516050E14C0DBFFFE0EDB502F0DF3CFD5
:100B0000E9FFF4CFEAFF4C0EE926010EEA22280E97
:100B1000E926000EEA22EECF14F0EFCF15F0FF0E1B
:100B20001416000E1516060E14C0DBFF040EDB9023
:100B3000DB82DB84210EF36E070EF3CFDBFF080EA2
:100B4000F36EF3CFDBFF040EDB96DB98090EDB6858
:100B50000A0EDB680B0EDB680C0EDB680D0EDB6823
:100B60000E0EDB680F0EDB68100EDB68FE0EDB502E
:100B70002F0DF3CFE9FFF4CFEAFF4C0EE926010E6B
:100B8000EA22160EE926000EEA22EECF14F0EECF8E
:100B900015F0EECF16F0EFCF17F0FE0EDB502F0D55
:100BA000F3CFE9FFF4CFEAFF4C0EE926010EEA226B
:100BB000120EE926000EEA22EECF18F0EECF19F061
:100BC000EECF1AF0EFCF1BF018C00AF019C00BF0EF
:100BD0001AC00CF01BC00DF014C005F015C006F0D3
:100BE00016C007F017C008F093EC12F056EC13F0A3
:100BF00004C0DEFF05C0DEFF06C0DEFF07C0DDFF6C
:100C0000DD52DD52FE0EDB502F0DF3CFE9FFF4CFA6
:100C1000EAFF4C0EE926010EEA22270EE926000E15
:100C2000EA22EF50020A01E193D0030A30E0010A00
:100C300001E059D1D9CFE9FFDACFEAFFEECF16F0C4
:100C4000EECF17F0EECF18F0EFCF19F01650E66E9A
:100C5000D950090F146EDACF15F0FE0EDB502F0DB0
:100C6000F3CFE9FFF4CFEAFF4C0EE926010EEA22AA
:100C70002A0EE926000EEA22EF500F011424E96E35
:100C8000000E1520EA6EE552E750EF6E2CD1D9CF59
:100C9000E9FFDACFEAFFEECF16F0EECF17F0EECF96
:100CA00018F0EFCF19F01650E66ED950090F146EF8
:100CB000DACF15F0FE0EDB502F0DF3CFE9FFF4CFA6
:100CC000EAFF4C0EE926010EEA222A0EE926000E62
:100CD000EA22EF500F011424E96E000E1520EA6E8F
:100CE000E552E750EF6ED9CFE9FFDACFEAFFEECF5A
:100CF00016F0EECF17F0EECF18F0EFCF19F0080E88
:100D0000D8901932183217321632E806F9E1165027
:100D1000E66ED950090F146EDACF15F0FE0EDB50D7
:100D20002F0DF3CFE9FFF4CFEAFF4C0EE926010EB9
:100D3000EA222A0EE926000EEA22EF280F011424E7
:100D4000E96E000E1520EA6EE552E750EF6ECBD04B
:100D5000D9CFE9FFDACFEAFFEECF16F0EECF17F0EA
:100D6000EECF18F0EFCF19F01650E66ED950090FFC
:100D7000146EDACF15F0FE0EDB502F0DF3CFE9FF26
:100D8000F4CFEAFF4C0EE926010EEA222A0EE926EC
:100D9000000EEA22EF500F011424E96E000E152018
:100DA000EA6EE552E750EF6ED9CFE9FFDACFEAFFFE
:100DB000EECF16F0EECF17F0EECF18F0EFCF19F020
:100DC000080ED8901932183217321632E806F9E1B7
:100DD0001650E66ED950090F146EDACF15F0FE0EDC
:100DE000DB502F0DF3CFE9FFF4CFEAFF4C0EE926DD
:100DF000010EEA222A0EE926000EEA22EF280F0150
:100E00001424E96E000E1520EA6EE552E750EF6EED
:100E1000D9CFE9FFDACFEAFFEECF16F0EECF17F029
:100E2000EECF18F0EFCF19F0100ED890193218321B
:100E300017321632E806F9E11650E66ED950090F5E
:100E4000146EDACF15F0FE0EDB502F0DF3CFE9FF55
:100E5000F4CFEAFF4C0EE926010EEA222A0EE9261B
:100E6000000EEA22EF50020F0F011424E96E000E6B
:100E70001520EA6EE552E750EF6ED9CFE9FFDACFE1
:100E8000EAFFEECF16F0EECF17F0EECF18F0EFCF6F
:100E900019F0180ED8901932183217321632E806A7
:100EA000F9E11650E66ED950090F146EDACF15F03D
:100EB000FE0EDB502F0DF3CFE9FFF4CFEAFF4C0E0F
:100EC000E926010EEA222A0EE926000EEA22EF5058
:100ED000030F0F011424E96E000E1520EA6EE5528F
:100EE000E750EF6E00D0D950040FE66E000EDA2006
:100EF000E66E6EEC0DF0E552E552050EE66E5AEC2C
:100F00000CF0E552110EE15C02E2E16AE552E16E9D
:100F1000E552E7CFD9FF1200D9CFE6FFE1CFD9FFE5
:100F2000020EE126DE6ADD6ADECF14F0DDCF15F0B9
:100F3000FD0EDBCF16F0FE0EDBCF17F01650145C63
:100F4000175015580AE2080EE66EE7EC17F0E55266
:100F5000DF2A010E01E3DB2AE7D7020EE15C02E2A1
:100F6000E16AE552E16EE552E7CFD9FF1200D9CF31
:100F7000E6FFE1CFD9FFE652DF6ADFCF14F00C0EB7
:100F8000E76E1418E8AE02D0E73402D0E750145CE4
:100F900003E20000DF2AF1D7E552E552E7CFD9FF9F
:100FA00012000F0EE66EE66AB7DFE552E55200D09A
:100FB0001200050EE66EE66AAFDFE552E55200D09C
:020FC00012001D
:0E0FC200D9CFE6FFE1CFD9FFE652DF6A030187
:100FD000706B70C36FF370C36EF370C36DF3726B9D
:100FE00072C371F3020EE66E900EE66E070EE66EA9
:100FF00060D8E552E552E552FE0EDBCF9BF2DBCF27
:101000009AF2080EDF5C19E2DF50E76EFC0EDBCFD0
:10101000E9FFFD0EDBCFEAFFE750E926000EEA22EA
:10102000EF50E66EDF50EA6A920FE96E020EEA2296
:10103000E552E750EF6EDF2AE4D70F01070E186F75
:101040000F01880E196F0F011A6B0F011B6B0F0137
:101050001C6B0F01080E1D6F0F011E690F011F6B26
:101060000F01070E006F0F01880E016F0F01080EB0
:10107000096F0F010A690F010D6F0F010E69E66A12
:1010800036D8E55202019C919C939C959C97E66A08
:10109000AFDAE55202019CA306D0050EE66E5AECCB
:1010A0000CF0E552F7D700D0E552E552E7CFD9FF73
:1010B0001200D9CFE6FFE1CFD9FF93869394010EBA
:1010C000E66E15D8E552400E606E0F01506FFE0EB1
:1010D000DB50706EFD0EDB50716EFC0EDB50726EDD
:1010E000738A739800D0E552E7CFD9FF1200D9CFA9
:1010F000E6FFE1CFD9FFE652DF6AFE0EDB50020ABF
:101100000FE0030A06E0010A01E011D01F0E6F167E
:101110000ED01F0E6F1480096F6E800EDF6E07D029
:101120001F0E6F1440096F6E400EDF6E00D0E00E90
:101130006E14146EDF50145C01E0F9D7E552E552ED
:10114000E7CFD9FF1200D9CFE6FFE1CFD9FFE652B2
:10115000DF6AFB0EDBCFE9FFFC0EDBCFEAFFEF6AB5
:10116000FD0EDBCFE9FFFE0EDBCFEAFFEF50070BF2
:10117000200DF3CF14F0FB0EDBCFE9FFFC0EDBCF2D
:10118000EAFF1450EF12FD0EDBCFE9FFFE0EDBCFBE
:10119000EAFFEE52EF50E00BE838E840146EFB0E29
:1011A000DBCFE9FFFC0EDBCFEAFF1450EF12FD0EA0
:1011B000DBCFE9FFFE0EDBCFEAFFEF50100B01E0C3
:1011C000010E080DF3CF14F0FB0EDBCFE9FFFC0E90
:1011D000DBCFEAFF1450EF12FB0EDB2AFC0E01E31B
:1011E000DB2AFB0EDBCFE9FFFC0EDBCFEAFF080EAC
:1011F000EF6EFD0EDBCFE9FFFE0EDBCFEAFFEE5216
:10120000EF50080DF350E00B146EFB0EDBCFE9FF3F
:10121000FC0EDBCFEAFF1450EF12FD0EDBCFE9FF2F
:10122000FE0EDBCFEAFFEE52EF50030B146EFB0E07
:10123000DBCFE9FFFC0EDBCFEAFF1450EF12FB0E11
:10124000DB2AFC0E01E3DB2AFD0EDBCFE9FFFE0EFD
:10125000DBCFEAFF020EE926000EEA22EF50E66E2F
:10126000FB0EDBCFE9FFFC0EDBCFEAFFE552E750D8
:10127000EF6EFB0EDB2AFC0E01E3DB2AFD0EDBCF5B
:10128000E9FFFE0EDBCFEAFF030EE926000EEA229D
:10129000EF50E66EFB0EDBCFE9FFFC0EDBCFEAFF83
:1012A000E552E750EF6EFB0EDB2AFC0E01E3DB2A72
:1012B000FD0EDBCFE9FFFE0EDBCFEAFF040EE926D1
:1012C000000EEA22EF50E66EFB0EDBCFE9FFFC0ECC
:1012D000DBCFEAFFE552E750EF6EFB0EDB2AFC0E98
:1012E00001E3DB2AFD0EDBCFE9FFFE0EDBCFEAFFD9
:1012F000040EE926000EEA22EF50DF5C27E2FD0E25
:10130000DBCFE9FFFE0EDBCFEAFF050EE926000E7C
:10131000EA22E9CF14F0EACF15F0DF500F011424D0
:10132000E96E000E1520EA6EEF50E66EFB0EDBCF85
:10133000E9FFFC0EDBCFEAFFE552E750EF6EFB0E54
:10134000DB2AFC0E01E3DB2ADF2ACCD700D0E552F2
:10135000E552E7CFD9FF1200D9CFE6FFE1CFD9FFA1
:10136000E652DF6AFB0EDBCFE9FFFC0EDBCFEAFFC4
:10137000EF50E00BE838E840146EFD0EDBCFE9FFDC
:10138000FE0EDBCFEAFF1450070BF36EF80EEF14DE
:10139000F310EF6EFB0EDBCFE9FFFC0EDBCFEAFFB5
:1013A000EF50080BE840E840E8401F0B146EFD0EBC
:1013B000DBCFE9FFFE0EDBCFEAFF1450010BF36E2B
:1013C000F346F346F346F346EF0EEF14F310EF6ED9
:1013D000FD0EDBCFE9FFFE0EDBCFEAFFEE52EF6A38
:1013E000FB0EDBCFE9FFFC0EDBCFEAFFEF50200D59
:1013F000F3CF14F0FD0EDBCFE9FFFE0EDBCFEAFFEB
:10140000EE521450EF12FB0EDB2AFC0E01E3DB2A36
:10141000FB0EDBCFE9FFFC0EDBCFEAFFEF50E8402D
:10142000E840E8401F0B1C0B146EFD0EDBCFE9FFFC
:10143000FE0EDBCFEAFFEE521450EF12FB0EDBCFB5
:10144000E9FFFC0EDBCFEAFFEF50030B146EFD0E3D
:10145000DBCFE9FFFE0EDBCFEAFFEE521450EF12B6
:10146000FB0EDB2AFC0E01E3DB2AFB0EDBCFE9FFE0
:10147000FC0EDBCFEAFFEF50E66EFD0EDBCFE9FF9F
:10148000FE0EDBCFEAFF020EE926000EEA22E5524D
:10149000E750EF6EFB0EDB2AFC0E01E3DB2AFB0EAE
:1014A000DBCFE9FFFC0EDBCFEAFFEF50E66EFD0E6F
:1014B000DBCFE9FFFE0EDBCFEAFF030EE926000ECD
:1014C000EA22E552E750EF6EFB0EDB2AFC0E01E349
:1014D000DB2AFD0EDBCFE9FFFE0EDBCFEAFF040EB9
:1014E000E926000EEA22EF5008080CE2FD0EDBCFE1
:1014F000E9FFFE0EDBCFEAFF040EE926000EEA222A
:10150000080EEF6EFB0EDBCFE9FFFC0EDBCFEAFF30
:10151000EF50E66EFD0EDBCFE9FFFE0EDBCFEAFFFC
:10152000040EE926000EEA22E552E750EF6EFB0EAC
:10153000DB2AFC0E01E3DB2AFD0EDBCFE9FFFE0E0A
:10154000DBCFEAFF040EE926000EEA22EF50DF5C53
:1015500027E2FB0EDBCFE9FFFC0EDBCFEAFFEF500B
:10156000E66EFD0EDBCFE9FFFE0EDBCFEAFF050ED8
:10157000E926000EEA22E9CF14F0EACF15F0DF5099
:101580000F011424E96E000E1520EA6EE552E750B3
:10159000EF6EFB0EDB2AFC0E01E3DB2ADF2ACCD741
:1015A00000D0E552E552E7CFD9FF1200D9CFE6FFD0
:1015B000E1CFD9FFE652DF6A080EDF5C13E2DF50AD
:1015C000EA6A920FE96E020EEA22EF50E66EDF50F1
:1015D000EA6A8A0FE96E020EEA22E552E750EF6EE0
:1015E000DF2AEAD700D0E552E552E7CFD9FF120053
:1015F000D9CFE6FFE1CFD9FF0201858185838595AB
:101600008769EE0E866F080E896F85978599FE0EA5
:10161000DB042BE19A51885D08E18851146E156A4C
:10162000FE0E141801E1155001E140D08A0EE66E5D
:10163000020EE66E80D8E552E552FF0816E04DD85E
:10164000000913E1B3DF0201FE0E9A6F886F850E69
:10165000E66E020EE66EBAD8E552E552E6682AD882
:10166000E55202019C819C9321D0A0DF9BC288F2AD
:10167000850EE66E020EE66EA9D8E552E552800EA2
:1016800002019B1504E0F80E9B15F80808E19C91F7
:101690009BC29AF29AC2E6FF0DD8E55206D09C830F
:1016A0000001FC6BFD6BFE6BFF6B00D0E552E7CFDA
:1016B000D9FF1200D9CFE6FFE1CFD9FF010EE66EC8
:1016C00016DDE552FE0EDBCF0EFFE66A10DDE552B9
:1016D00000D0E552E7CFD9FF120002019A51146EF3
:1016E000156AD890155004E6800E145C000E15584B
:1016F0000DE39C51020B0DE19A51166E176A1734D7
:1017000004E216508008000E175403E2800E9A6F10
:1017100001D09A2B9AC29BF29A51146E156AF80E58
:10172000141801E1155004E1FE0E9A6F000E02D06C
:10173000010E00D01200D9CFE6FFE1CFD9FFE6526B
:10174000DF6A080EDF5C19E2DF50E76EFD0EDBCFCB
:10175000E9FFFE0EDBCFEAFFE750E926000EEA22A2
:10176000EFCF14F0DF50EA6A920FE96E020EEA2220
:10177000EF50145C02E1DF2AE4D7080EDF5C03E1DE
:10178000000E1FD01CD0DF50EA6A920FE96E020EE5
:10179000EA22EFCF14F0DF50E76EFD0EDBCFE9FF5A
:1017A000FE0EDBCFEAFFE750E926000EEA22EF50FB
:1017B000145C03E2FF0E05D002D0010E02D0000E31
:1017C00000D0E552E552E7CFD9FF1200D9CFE6FFAE
:1017D000E1CFD9FF050EE126DF6A020EDF5C5CE295
:1017E000DF50020A19E0030A0DE0010A01E01ED0F1
:1017F000D950010FE96EDACFEAFF400EEE6E0F0E00
:10180000ED6E14D0D950010FE96EDACFEAFF300E39
:10181000EE6E0F0EED6E0AD0D950010FE96EDACFE1
:10182000EAFF200EEE6E0F0EED6E00D0010EDBCF44
:1018300006F0020EDBCF07F0030E06C0DBFF040E3E
:1018400007C0DBFF010EDB2A020E01E3DB2A030ED9
:10185000DBCFE9FF040EDBCFEAFFEF50080B1AE104
:10186000010EDBCFE6FF020EDBCFE6FFFD0EDBCF86
:10187000E6FFFE0EDBCFE6FF66DCE552E552E55201
:10188000E552030EDBCFE9FF040EDBCFEAFFEF8664
:10189000010E04D0DF2AA1D7000E00D0146E050E71
:1018A000E15C02E2E16AE552E16E1450E552E7CFF5
:1018B000D9FF1200D9CFE6FFE1CFD9FFFE0EDBCF73
:1018C00014F0000114500001FC27000EFD23FE233C
:1018D000FF231CD8D8D802019C51020B13E0900EB4
:1018E0000001FC5DD00EFD59030EFE59000EFF599C
:1018F00009E302019C919C939BC29AF29AC2E6FF73
:10190000D9DEE552E552E7CFD9FF1200D9CFE6FF85
:10191000E1CFD9FF050EE126DF6A020EDF5C66E249
:10192000DF50010A0DE0010A01E014D0D950010F87
:10193000E96EDACFEAFF600EEE6E0F0EED6E0AD0A2
:10194000D950010FE96EDACFEAFF500EEE6E0F0E9E
:10195000ED6E00D0010EDBCF06F0020EDBCF07F0FC
:10196000030E06C0DBFF040E07C0DBFF010EDB2AFF
:10197000020E01E3DB2A030EDBCFE9FF040EDBCF0F
:10198000EAFFEF50800B30E0010EDBCFE6FF020EE6
:10199000DBCFE6FF850EE66E020EE66EDDDCE5527D
:1019A000E552E552E55202018651EA0A0AE0040ACC
:1019B00001E012D09CB704D0010EE66E19DEE552AC
:1019C0000CD08A5107E1EA0E8B5D04E18C5102E1F3
:1019D00018D801D030D801D02ED8030EDBCFE9FFC4
:1019E000040EDBCFEAFFEF9EDF2A97D700D0050E6B
:1019F000E15C02E2E16AE552E16EE552E7CFD9FF30
:101A0000120002019CA103D0FE0E886F02D09AC280
:101A100088F2858185838595EE0E866F8769080E2D
:101A2000896FC4DD850EE66E020EE66ECFDEE552EE
:101A3000E55200D01200080E0301725D21E20D0E86
:101A4000E66E850EE66E020EE66E70510D0DF3CF5A
:101A500014F0F4CF15F0050E1426030E152214C051
:101A6000E6FF15C0E6FFB5D8166E050EE15E16500E
:101A70000301702B722B080E705D01E1706B01D0B9
:101A80009C8500D01200D9CFE6FFE1CFD9FFE65206
:101A9000DF6A030171511CE0030EDF5C19E26D5136
:101AA0000D0DF3CF14F0F4CF15F09D0E1426020E99
:101AB000152214C0E6FF15C0E6FF88DEE552E552A8
:101AC000030171076D2B080E6D5D01E16D6BE1D7B0
:101AD00000D0E552E552E7CFD9FF1200D9CFE6FF9B
:101AE000E1CFD9FF080E0301715D02E1010E34D090
:101AF0000D0EE66EFD0EDBCFE6FFFE0EDBCFE6FF42
:101B00006E510D0DF3CF14F0F4CF15F09D0E142689
:101B1000020E152214C0E6FF15C0E6FF5AD8166E55
:101B2000050EE15E165003016E510D0DF3CFE9FF76
:101B3000F4CFEAFF9D0EE926020EEA22030EE92603
:101B4000000EEA229AC2EFFF712B6E2B080E6E5D1B
:101B500001E16E6B000E00D0E552E7CFD9FF120015
:101B6000D9CFE6FFE1CFD9FF0301725102E1020EA6
:101B700024D00D0EE66E6F510D0DF3CF14F0F4CF9F
:101B800015F0050E1426030E152214C0E6FF15C02D
:101B9000E6FFFD0EDBCFE6FFFE0EDBCFE6FF19D83A
:101BA000166E050EE15E1650030172076F2B080ECC
:101BB0006F5D01E16F6B000E00D0E552E7CFD9FFFA
:101BC00012000301725100D012000301715100D0C4
:101BD0001200D9CFE6FFE1CFD9FFE652DF6AFA0E55
:101BE000DB50DF5C1FE2DF50E76EFB0EDBCFE9FF6F
:101BF000FC0EDBCFEAFFE750E926000EEA22EF50A9
:101C0000E66EDF50E76EFD0EDBCFE9FFFE0EDBCFA9
:101C1000EAFFE750E926000EEA22E552E750EF6EB0
:101C2000DF2ADDD700D0E552E552E7CFD9FF120019
:101C30000F01336B0F01346B0F016B0E316F0F010E
:101C4000CB0E326F0F01080E356F0F01AA0E366FE3
:101C50000F01CC0E376F0F01550E386F0F01396B26
:101C60000F013A6B0F013B6B0F013C6B0F013D6B9A
:061C70000F013087120095
:0A1C7600D9CFE6FFE1CFD9FF0F0E32
:101C800081169316929E94929490899E8B928B903B
:101C9000D1EC07F0300EE66E4DD8E552210EE66E1F
:101CA000E7EC17F0E552300EE66E44D8E552010E2F
:101CB000E66EE7EC17F0E552320EE66E3BD8E552E1
:101CC00087D8000901E0FCD783D8000901E0FCD7E0
:101CD000FE0EDBCFE6FF2ED8E5527AD8000901E0F0
:101CE000FCD7080EE66E26D8E55272D8000901E04E
:101CF000FCD70F0EE66E1ED8E5526AD8000901E047
:101D0000FCD7010EE66E16D8E55262D8000901E054
:101D1000FCD7040EE66E0ED8E5525AD8000901E051
:101D2000FCD7800EE66E4DD9E55200D0E552E7CFE4
:101D3000D9FF1200D9CFE6FFE1CFD9FF0F0E9316DE
:101D40008116FE0EDB50F00B8112899E8B92B7EC50
:101D500007F08B80B7EC07F08B900F0E8116FE0E0C
:101D6000DB38F00BF00B8112B7EC07F08B80B7EC8F
:101D700007F08B90F00E931200D0E552E7CFD9FF19
:101D80001200D9CFE6FFE1CFD9FF0F0E93168116CF
:101D9000FE0EDB50F00B81128B82899EB7EC07F0B0
:101DA0008B80B7EC07F08B900F0E8116FE0EDB38A0
:101DB000F00BF00B8112B7EC07F08B80B7EC07F05B
:101DC0008B90F00E931200D0E552E7CFD9FF1200AE
:101DD000898E8B92B7EC07F08B80B7EC07F081AE61
:101DE0000BD08B90B7EC07F08B80B7EC07F08B90A3
:101DF000899E010E0BD00AD08B90B7EC07F08B8038
:101E0000B7EC07F08B90899E000E00D01200D9CF5E
:101E1000E6FFE1CFD9FFFD0EDBCFF6FFFE0EDBCFF5
:101E2000F7FF0800F55015E0D3DF000901E0FCD70B
:101E3000FD0EDBCFF6FFFE0EDBCFF7FF0800F550FF
:101E4000E66E9FDFE552FD0EDB2AFE0E01E3DB2A84
:101E5000E2D700D0E552E7CFD9FF1200D9CFE6FF95
:101E6000E1CFD9FFFD0EDBCFE9FFFE0EDBCFEAFFAE
:101E7000EF5036E0FD0EDBCFE9FFFE0EDBCFEAFFD1
:101E8000EF50146E156A153404E21450BF08000EAA
:101E9000155416E2FD0EDBCFE9FFFE0EDBCFEAFFA5
:101EA000EF50E96EEA6AC00EE95E000EEA5AB20E21
:101EB000E926000EEA22EF50E66E63DFE5520AD013
:101EC000FD0EDBCFE9FFFE0EDBCFEAFFEF50E66E43
:101ED00058DFE552FD0EDB2AFE0E01E3DB2AC2D7F6
:101EE00000D0E552E7CFD9FF1200D9CFE6FFE1CF0E
:101EF000D9FFE652898E8B92B7EC07F08B80F00EFB
:101F00008114DF6E8B90B7EC07F08B80B7EC07F095
:101F100081380F0B0F0BDF128B90899E7F0EDF1421
:101F200000D0E552E552E7CFD9FF1200D9CFE6FF46
:101F3000E1CFD9FFE652898E8B82B7EC07F08B8018
:101F4000B7EC07F0F00E8114DF6E8B90B7EC07F062
:101F50008B80B7EC07F081380F0B0F0BDF128B90E3
:101F60008B92899EDF5000D0E552E552E7CFD9FF32
:101F70001200D9CFE6FFE1CFD9FF0F0E93168116DD
:101F8000FE0EDB504009F00B8112899E8B92B7EC5C
:101F900007F08B80B7EC07F08B900F0E8116FE0ECA
:101FA000DB38F00BF00B8112B7EC07F08B80B7EC4D
:101FB00007F08B90F00E931200D0E552E7CFD9FFD7
:101FC0001200D9CFE6FFE1CFD9FF0F0E931681168D
:101FD000FE0EDB508009F00B8112899E8B92B7ECCC
:101FE00007F08B80B7EC07F08B900F0E8116FE0E7A
:101FF000DB38F00BF00B8112B7EC07F08B80B7ECFD
:1020000007F08B90F00E931200D0E552E7CFD9FF86
:102010001200D9CFE6FFE1CFD9FF110EE126D9CFCB
:10202000E9FFDACFEAFF200EEE6EEE6EEE6EEE6E98
:10203000EE6EEE6EEE6EEE6EEE6EEE6EEE6EEE6EC0
:10204000EE6EEE6EEE6EEE6EEE6AE66ABADFE552A8
:10205000D9CFE6FFDACFE6FF01DFE552E552110EF8
:10206000E15C02E2E16AE552E16EE552E7CFD9FFB9
:102070001200D9CFE6FFE1CFD9FF110EE126D9CF6B
:10208000E9FFDACFEAFF200EEE6EEE6EEE6EEE6E38
:10209000EE6EEE6EEE6EEE6EEE6EEE6EEE6EEE6E60
:1020A000EE6EEE6EEE6EEE6EEE6A280EE66E89DF76
:1020B000E552D9CFE6FFDACFE6FFD0DEE552E552B2
:1020C000110EE15C02E2E16AE552E16EE552E7CF12
:1020D000D9FF1200D9CFE6FFE1CFD9FF050EE126E7
:1020E000D9CFE6FFDACFE6FFFD0EDBCFE6FFFE0E2F
:1020F000DBCFE6FFC5EC15F0E552E552E552E552BF
:10210000040E146EFC0EDBCFE7FF1450E726FC0E26
:10211000E7CFDBFFD950FD0FE96EFF0EDA20EA6E44
:10212000090ED880EE54000EED5402E2FC0EDB06E0
:10213000D950FD0FE96EFF0EDA20EA6E630ED880EB
:10214000EE54000EED5402E2FC0EDB06D950FD0FFA
:10215000E96EFF0EDA20EA6EE70ED880EE54030E29
:10216000ED5402E2FC0EDB06FC0EDBCFE6FF29DFBE
:10217000E552D9CFE6FFDACFE6FF70DEE552E55251
:10218000050EE15C02E2E16AE552E16EE552E7CF5D
:10219000D9FF1200D9CFE6FFE1CFD9FF090EE12622
:1021A000DE6ADD6A020EDB6A030EDB6AFB0EDBCF42
:1021B00005F0FC0EDBCF06F0FD0EDBCF07F0FE0EC8
:1021C000DBCF08F027EC13F006C0DEFF07C0DDFF11
:1021D000FB0EDBCF18F0FC0EDBCF19F0FD0EDBCFD2
:1021E0001AF0FE0EDBCF1BF0000EDFCF06F0010E63
:1021F000DBCF07F0E7EC11F005C01CF006C01DF0C6
:1022000007C01EF008C01FF01CC00AF01DC00BF074
:102210001EC00CF01FC00DF018C005F019C006F06C
:102220001AC007F01BC008F0FCEC11F005C014F058
:1022300006C015F007C016F008C017F00A6A0B6A4E
:10224000200E0C6E410E0D6E14C005F015C006F088
:1022500016C007F017C008F093EC12F027EC13F04B
:10226000020E06C0DBFF030E07C0DBFF040E146E78
:10227000F90EDBCFE7FF1450E726F90EE7CFDBFFBF
:10228000D9CFE9FFDACFEAFF090ED880EE54000E6D
:10229000ED5402E2F90EDB06D9CFE9FFDACFEAFF0F
:1022A000630ED880EE54000EED5402E2F90EDB0608
:1022B000D9CFE9FFDACFEAFFE70ED880EE54030E5C
:1022C000ED5402E2F90EDB06020E146EF90EDBCFBE
:1022D000E7FF1450E75EF90EE7CFDBFFF90EDBCF27
:1022E000E6FF6FDEE552D950040FE66E000EDA20ED
:1022F000E66EDECFE6FFDDCFE6FFC5EC15F0E5527A
:10230000E552E552E552D950040FE66E000EDA2090
:10231000E66EA4DDE552E552F90EDB2AD9CFE9FFDE
:10232000DACFEAFF090ED880EE54000EED5402E237
:10233000F90EDB2AD9CFE9FFDACFEAFF630ED880A6
:10234000EE54000EED5402E2F90EDB2AD9CFE9FF7C
:10235000DACFEAFFE70ED880EE54030EED5402E226
:10236000F90EDB2AF90EDBCFE6FF2BDEE5522E0E4F
:10237000E66E07DDE552F90EDB2AF90EDBCFE6FF4C
:1023800020DEE552D950040FE66E000EDA20E66E2C
:10239000020EDBCFE6FF030EDBCFE6FFC5EC15F048
:1023A000E552E552E552E552D950040FE66E000EB3
:1023B000DA20E66E53DDE552E552090EE15C02E2F9
:0E23C000E16AE552E16EE552E7CFD9FF120067
:0223CE000F9E60
:1023D00008D00F9E07AE05D0066C071EE86A0722DC
:1023E0000F8E07C001F006C000F0136A126A8E0E4D
:1023F000026E036A10EF14F00D7E0F6A4CEC14F0BD
:1024000064EC14F00FB6F4EF13F00FA20AD00FAA89
:1024100003D00FBEF4EF13F00FA400EF14F0FDEFA4
:1024200013F00FAA05D00FAC00EF14F0FDEF13F07E
:102430000FA00AD00FA808D00FBE04D00FA402D05E
:1024400009EF14F00DEF14F0126A036A0D50085CE6
:10245000116E10E305C013F006C000F007C001F0D4
:1024600008C010F00AC005F00BC006F00CC007F061
:102470000F3A09D00AC013F00BC000F00CC001F0F5
:102480000DC010F0116C0F9E0FBC0F8E10C002F02B
:102490000FB03CEF14F01A0E11603CEF14F0026A1A
:1024A000086A0FA408D0056C061E071E081EE86AFD
:1024B0000622072208220FAC08D0136C001E011E52
:1024C000021EE86A002201220222046A115207E079
:1024D00008340732063205320432112EF9D705507E
:1024E000132606500022075001220850022204C081
:1024F00012F00F9E02AE0BD0126C131E001E011EB6
:10250000021EE86A13220022012202220F8E02A07C
:1025100006D0D8800132003213321232102A10C095
:1025200002F010EF14F00F6A4CEC14F064EC14F0AD
:102530000FB6F4EF13F00FA205D00FB8F4EF13F0BD
:10254000FBEF13F00FAA05D00FB0F4EF13F0FBEF81
:1025500013F00FB002D00FA802D007EF14F0036AF7
:102560000D500824026EE86A03227E0E025EE86ABD
:10257000035A126A136A006A016A0C500702F4CF08
:1025800001F0F3CF00F00B500702F3501326F45084
:102590000022000E01220C500602F3501326F450C4
:1025A0000022000E01220A500702F3501226F450B6
:1025B0001322000E002201220B500602F3501226B5
:1025C000F4501322000E002201220C500502F35099
:1025D0001226F4501322000E002201220A50060295
:1025E000F4501226000E1322002201220B50050285
:1025F000F4501226000E13220022012210EF14F0D4
:102600000F6A4CEC14F00FB60AEF13F00FA20AD0C9
:102610000FB403D07F0E076E19D0800E076E16D050
:10262000076A14D00FB0FCD7870E0860F1D77E0E72
:102630000864F6D7860E085C04E0D8900732082AB2
:10264000F9D70FA403D0076C07AEEAD712000F6AC0
:102650004CEC14F00FB631EF13F00FA20ED00FB404
:1026600005D07F0E076EFF0E066E1FD0800E076E20
:10267000066A1BD0076A066A18D00FB0FBD78F0E08
:102680000860EDD77E0E0864F5D78E0E085C05E075
:10269000D89007320632082AF8D70FA406D0066C65
:1026A000071EE86A072207AEE5D712000F6A4CEC56
:1026B00014F00FB660EF13F00FA20FD00FB407D0D5
:1026C0007F0E076EFF0E066E056E046E25D0800E1F
:1026D000076E01D0076A000EF6D70FB0FBD7046A69
:1026E0009F0E0860EBD77E0E0864F4D79E0E085C40
:1026F00007E0D8900732063205320432082AF6D7AE
:102700000FA40AD0046C051E061E071EE86A0522E7
:102710000622072207AEDED712009FEC13F00FB699
:10272000000C0FB0000C0FB4000C010C9FEC13F068
:102730000FB6000C0FB0000C0FA4000C010C0F6AB8
:102740004CEC14F064EC14F00FB612000FAE08D08D
:102750000FA004D00FA802D00F8012000F9012001B
:102760000D50085C0BE10C50075C08E10B50065C57
:1027700005E10A50055C02E10F801200D8A002D0EA
:102780000F8E10D008500DC008F00D6E07500CC011
:1027900007F00C6E06500BC006F00B6E05500AC019
:1027A00005F00A6E0D50085C10E0FF0F09E00F9075
:1027B0000FB403D00FAE0F8412000FAE0F941200AF
:1027C0000D2AD8900C320B320A320A50055E0B509B
:1027D000065A0C50075A07BEEAD7D8900536063677
:1027E0000736082EF8D7C8D77F0E086EFF0E076E83
:1027F000066E056E12007F0E0FBEFF0E086E02D031
:102800007F0E086E800E076E066A056AF3D70FAE5C
:1028100004D0800E086E076AF7D7086A076AF4D7F3
:102820000150001013101210F8E003BEF0D701BEE3
:102830000CD002500310EBE0D8901236133600365D
:1028400001360206D8A00306F2D70350D4E10228CD
:10285000D2E012AE11D07F0E121402E113A00CD000
:10286000132AE86A0022012207E3D88001320032ED
:102870001332022A0228BFE00250C9E013C005F05B
:1028800000C006F00134076E0230086E0732089E61
:102890000FBE088EFAEF13F00736083602E30F84F6
:1028A0000F7E06E10F80086A076A066A056A120051
:1028B000082803E0D88007321200D890073202E1DE
:1028C0000F8212000F8612000C360D3602E30F8CB9
:1028D0000F7E06E10F880D6A0C6A0B6A0A6A120005
:1028E0000D2803E0D8800C321200D8900C32EAE1B7
:0428F0000F8A120039
:0C28F400D9CFE6FFE1CFD9FFE652DF6A42
:10290000DF6A100EDF5C2DE2DF50050DF3CFE9FF2B
:10291000F4CFEAFF600EE926000EEA22010EEF6E08
:10292000DF50050DF3CFE9FFF4CFEAFF600EE92693
:10293000000EEA22030EE926000EEA22EF6ADF50BB
:10294000050DF3CFE9FFF4CFEAFF600EE926000E94
:10295000EA22040EE926000EEA22010EEF6EDF2ABB
:10296000D0D70001786B7D6B826B876BF3EC16F030
:10297000870EE66EBFEC17F0E552FD0EDBCFB0F030
:10298000FE0EDBCFB1F0E552E552E7CFD9FF1200E2
:10299000D9CFE6FFE1CFD9FF080EE126DF6A010EAD
:1029A000DB6A020EDB6A030EDB6A040EDB6A010ED1
:1029B000F36E050EF3CFDBFF060EDB6ADF6A100E47
:1029C000DF5C01E389D0050EDBCF16F0060EDBCF0E
:1029D00017F0DF5016C014F017C015F005E0D890BE
:1029E00014361536E804FBE114C0E6FF15C0E6FF17
:1029F00002EC17F0E552E55226EC18F01EEC18F048
:102A0000000901E0FBD715EC18F0F3CF73F3F4CF16
:102A100074F30301640ED8807355000E745506E2FA
:102A2000020EF36E070EF3CFDBFF05D0010EF36E3F
:102A3000070EF3CFDBFFDF50050DF3CFE9FFF4CF37
:102A4000EAFF600EE926000EEA22EFCF14F0070E2F
:102A5000DB50145C3FE0070EDBCFE6FFDFCFE6FF85
:102A600005D0B1C0FAFF0001B051F96EFADFE552AE
:102A7000E552DF50050DF3CFE9FFF4CFEAFF600E1A
:102A8000E926000EEA22070EDBCFEFFFDB5002083B
:102A900021E1DF50050DF3CFE9FFF4CFEAFF600E2F
:102AA000E926000EEA22030EE926000EEA22EF1CB8
:102AB000E66EDF50050DF3CFE9FFF4CFEAFF600EBD
:102AC000E926000EEA22030EE926000EEA22E5526C
:102AD000E750EF6EDF2A73D7DF6A100EDF5C41E24A
:102AE000DF50050DF3CFE9FFF4CFEAFF600EE926D2
:102AF000000EEA22030EE926000EEA22EF502FE034
:102B0000DF50050DF3CFE9FFF4CFEAFF600EE926B1
:102B1000000EEA22040EE926000EEA22EF501FE022
:102B2000050EDBCF18F0060EDBCF19F0DF5018C012
:102B300016F019C017F005E0D89016361736E804DD
:102B4000FBE1030EDB501610146E040EDB50171061
:102B5000156E030E14C0DBFF040E15C0DBFFDF2A69
:102B6000BCD7030EDBCFE6FF040EDBCFE6FF02ECA3
:102B700017F0E552E552080EE15C02E2E16AE55227
:0A2B8000E16EE552E7CFD9FF120025
:062B8A00D9CFE6FFDACF0F
:102B9000E6FFFA0EE3CFD9FFFB0EE3CFDAFFFD0E1F
:102BA000E35209E72D0EDE6EFC0EE31EE32AFD0E56
:102BB000D8B4E306E31EE652E652E652FD0EE124E7
:102BC000E76EFF0EE220E46EE652F70EE3CFE6FF7B
:102BD000F70EE3CFE6FF35EC16F0F90EE124E96ECF
:102BE000FF0EE220EA6E25EC16F00AE122EC16F068
:102BF00009E125EC16F008E122EC16F007E108D017
:102C000030EC16F02BEC16F030EC16F02BEC16F046
:102C100030EC16F0DE6AF90EE126FF0EE222FF0E1E
:102C2000E3CFDAFFE552FF0EE3CFD9FFE552FC0E0A
:102C3000E124E96EFF0EE220EA6EEECFF3FFEFCF64
:102C4000F4FF1200EF380F0B1200EF500F0B02E1F0
:102C5000EE52D8841200EF380F0B300FDE6E1200E8
:102C6000EE500F0B300FDE6E1200FC0EE3CFE9FFCB
:102C7000FD0EE3CFEAFF100EE66EEE6AEE6AEF6A33
:102C8000D890FD0EE336FE0EE336ED36ED36EF3628
:102C9000FF0EE30609E056EC16F0EE5256EC16F085
:102CA000EE5256EC16F0EDD7E56E1200030EEF244F
:0E2CB000E8B6EF6E300EEF24E8BEEF6E000CBB
:022CBE000E0EF8
:102CC000F66E000EF76E000EF86E00010900F5506A
:102CD000F76F0900F550F86F03E1F76701D03DD0B9
:102CE0000900F550F26F0900F550F36F0900F55037
:102CF000F46F09000900F550E96E0900F550EA6E1D
:102D0000090009000900F550F56F0900F550F66F4C
:102D100009000900F6CFF9F0F7CFFAF0F8CFFBF091
:102D2000F2C0F6FFF3C0F7FFF4C0F8FF0001F5535F
:102D300002E1F65307E00900F550EE6EF507F8E200
:102D4000F607F9D7F9C0F6FFFAC0F7FFFBC0F8FFA6
:0C2D50000001F707000EF85BBFD712006F
:042D5C00D9CFE6FFE6
:102D6000DACFE6FFE1CFD9FFE2CFDAFFAC6AAB6A98
:102D7000FD0EDBB0AC88DBA202D0AC8CAB8CDBB43C
:102D8000AC8EDBA602D0AB8801D0AB8ADBB8AC84BA
:102D90009E98DBBAAB86DBAC02D09D8A01D09D9AAF
:102DA0009E9ADBAE02D09D8801D09D98FB0EDB5031
:102DB000AF6EFB0EFC0EDBCF15F015C014F0156ADC
:102DC0001450B06EAC8AAB8E949C948EAC50100BA9
:102DD00004E0AC50800B01E1948CE552E5CFDAFFC2
:062DE000E7CFD9FF12004D
:0A2DE60093988A98939A8A9A949A17
:102DF0008B9A929A899A000EE66EE66A03D8E5529B
:102E0000E5521200D9CFE6FFE1CFD9FFE652100E0E
:102E1000DF6EDFCF14F0000EE76E1418E8AE02D0BC
:102E2000143403D0E750D880145417E2FE0EDB5060
:102E3000800B02E08A8801D08A98D950FD0FE96E94
:102E4000FF0EDA20EA6E010ED890EE36ED36E80677
:102E5000FBE18A8A8A9ADF06DCD78B8A8B9AE55255
:082E6000E552E7CFD9FF120093
:082E6800D9CFE6FFDACFE6FF47
:102E7000E1CFD9FFE2CFDAFFC26AC06AFC0EDB40C5
:102E80007F0B3C0BC26EFC0EDB38F00B300B146E6C
:102E9000FB0EDB500F0B1410C16EFD0EDB50040D4A
:102EA000F350380B156EFD0EDB380F0B070B146E4D
:102EB000FD0EDB50800B14101510C06EFC0EDBAE47
:102EC00003D09E9C9D8CF28CC280E552E5CFDAFF48
:062ED000E7CFD9FF12005C
:0A2ED600D9CFE6FFDACFE6FFE1CF27
:102EE000D9FFE2CFDAFFFD0EDB507E0BCD6EFD0E7B
:102EF000DBAC02D0CD8E01D0CD9ECF6ACE6A9E9043
:102F0000DBAE02D09D8001D09D90CD80E552E5CF13
:082F1000DAFFE7CFD9FF120040
:082F1800D9CFE6FFDACFE6FF96
:102F2000E1CFD9FFE2CFDAFFE652E652FC0EDBCF6B
:102F3000DEFFDBCFDDFF010EDB50CF6EDF50CE6E4C
:102F4000E552E552E552E5CFDAFFE7CFD9FF1200AF
:102F5000D9CFE6FFDACFE6FFE1CFD9FFE2CFDAFF44
:102F6000ACAC04D0AC90030175B3AC80FD0EDB506B
:0E2F7000AD6EE552E5CFDAFFE7CFD9FF1200D4
:022F7E00D9CFA9
:102F8000E6FFDACFE6FFE1CFD9FFE2CFDAFFC30EEB
:102F9000C214146EFD0EDB407F0B3C0B1410C26E8E
:0C2FA000E552E5CFDAFFE7CFD9FF1200C1
:042FAC00D9CFE6FF94
:102FB000DACFE6FFE1CFD9FFE2CFDAFFFD0EDB503B
:0E2FC000B86EE552E5CFDAFFE7CFD9FF120079
:022FCE00FF0EF4
:102FD000E350206E480E01D04C0EE76EE72EFED770
:0E2FE000E76AE72EFED7202EF7D7000012007A
:022FEE00000ED3
:102FF000F36E00EE00F0060E01D81200EA6002D077
:0E300000EE6AFCD7F350E9601200EE6AFCD7CE
:02300E0015EEBD
:1030100000F025EE00F0F86A0F9C5FEC16F003EC70
:0A30200000F076EC00F0FBD7120080
:06302A00C450176E166A87
:0C303000C3501610F36E17C0F4FF12001E
:04303C00C250020B71
:0630400001E0010E120088
:06304600C2909D9C1200E7
:04304C00C28212002A
:10305000EEE12FECE8ED00EB2FF720202000C2205E
:10306000202020200025202020202000EAEC2FF71F
:1030700020200020202020202000300031003200BD
:1030800033003400350036004C004D0048004E003F
:1030900001020408102040C1C2C4C8000020CEE1D3
:1030A0002E20E4E2E8E3E0F2E5EBFF200000000080
:1030B0000041000000000000000000C05A45000070
:1030C0004842000104F003320000000020D0E0F18B
:1030D000F5EEE420F2EEEFEBE8E2E000010000A004
:1030E0004100000000000000000000484200000015
:1030F0003F0101F2FE00640000000020CDE0EFF08F
:103100002E20E1E0F2E0F0E5E82000020000A0411E
:103110000000000000000000000048420000003FE6
:103120000101F7FE06E80300000020D3F02E20EE98
:10313000F5EB2E20E6E8E4EA2E0003000020400034
:10314000000000000000000000C8420000803F00B6
:1031500000EFFE07F40100000020D1EAEEF0EEF1EE
:10316000F2FC2020202020200004000080430000EA
:10317000000000000000000020430000803F00012C
:103180006CFE06320000000020D2E5EA2E20EFE5BA
:10319000F0E5E4E0F7E02000060000803F000000DA
:1031A0000000000000000020410000803F020100FC
:1031B0000000F4010000000000000000000000001A
:1031C00000000000000000000000000000000000FF
:0531D0000000000000FA
:0B31D50041A042A1E045A3A4A5A64B29
:1031E000A74D484FA8504354A9AA58E1ABACE2AD53
:1031F000AE62AFB0B161B2B3B4E365B6B7B8B9BA55
:10320000BBBCBD6FBE7063BF79E478E5C0C1E6C2E8
:05321000C3C4C5C6C7E0
:023215000000B7
:0432170000000000B3
:020000040030CA
:0100010008F6
:010003001EDE
:0100050000FA
:010006008178
:00000001FF
