:020000040000FA
:0600000024EF18F01200CD
:020006001200E6
:0600080020EF00F01200E1
:02000E000400EC
:10001000BD320000DB04000004000000BB32000021
:10002000DF040000020000007B32000091040000A9
:10003000400000008A30000060010000F101000073
:10004000DACFE4FFE2CFDAFFE9CFE4FFEACFE4FF63
:10005000F6CFE4FFF7CFE4FFF5CFE4FFF3CFE4FF03
:10006000F4CFE4FFFACFE4FF00EE00F0140EE80452
:1000700003E3EECFE4FFFBD700EE14F00C0EE80430
:1000800003E3EECFE4FFFBD7E6529EA00BD09E9099
:10009000C10EE66EE00EE66EA9EC17F0E552E552F1
:1000A000FFD816D9E55200EE1FF00C0EE80403E36A
:1000B000E5CFEDFFFBD700EE13F0140EE80403E3E9
:1000C000E5CFEDFFFBD7E5CFFAFFE5CFF4FFE5CFB6
:1000D000F3FFE5CFF5FFE5CFF7FFE5CFF6FFE5CF7F
:1000E000EAFFE5CFE9FFE5CFDAFF1100D9CFE6FF60
:1000F000E1CFD9FF0D0EE126DE6ADE6ADE6ADD6A37
:10010000DD52DD52080EDB6A090EDB6A0B0EDB6A7C
:100110000C0EDB6AABD83DD876D8320EE66EE66AB6
:10012000AAEC07F0E552E552280EE66E58EC0EF008
:10013000E552320EE66EE66AAAEC07F0E552E552A9
:100140000C0EE66EB7EC0EF0E552B9D8D08EF28EFA
:10015000F28C320EE66E030EE66E210EE66EFFECBA
:1001600007F0E552E552E552080EE66E040EE66E23
:1001700097EC14F0E552E5527ED8FFD70D0EE15C06
:1001800003E200D0E16AE552E16EE552E7CFD9FF24
:100190001200D9CFE6FFE1CFD9FF060EE126DF6AD4
:1001A000010EDB6A020EDB6A030EDB6A040EDB6AF9
:1001B000050EDB6A40EC18F0DE52CC0EDD6E800ED0
:1001C000F36E020EF3CFDBFF050EF36E040EF3CFDA
:1001D000DBFFDBCFE6FF020EDBCFE6FF010EDBCF5E
:1001E000E6FF51EC17F0E552E552E5529E9CF28C89
:1001F0009D8C060EE15C02E2E16AE552E16EE55299
:10020000E7CFD9FF1200D9CFE6FFE1CFD9FF040E27
:10021000E126DF6A010EDB6A020EDB6A030EDB6A8F
:100220004F0EAB16AC9ACF0E9D16080EDF6EDE5247
:10023000790EDD6E010EDBCFE6FFE66ADFCFE6FF6B
:10024000CBEC16F0E552E552E552020EDB6ADBCF4D
:10025000E6FFF3EC17F0E552040EE15C02E2E16A1E
:10026000E552E16EE552E7CFD9FF1200D388D38A79
:10027000D38C9B8C1200000EE66EE66AA9EC17F098
:10028000E552E552C40EE66E88EC17F0E552C10E59
:10029000E66EE00EE66EA9EC17F0E552E5521200AC
:1002A00003013A2B000E3B230A0E3A1901E13B51A0
:1002B00005E1E5EC14F003013A6B3B6B1200B9C1A8
:1002C000E6FF5CDAE552B9C1E6FF87DAE5521200D3
:1002D000D9CFE6FFE1CFD9FFE652DF6ADF6A080E29
:1002E000DF5C01E38CD0DF502F0DF3CFE9FFF4CFBB
:1002F000EAFFBA0EE926010EEA222D0EE926000ECB
:10030000EA22EECF14F0EFCF15F0DF502F0DF3CF30
:10031000E9FFF4CFEAFFBA0EE926010EEA222B0E1E
:10032000E926000EEA22EECF16F0EFCF17F01650B6
:10033000141802E11750151850E1DF502F0DF3CFBC
:10034000E9FFF4CFEAFFBA0EE926010EEA22EF50E8
:1003500033E0070EDF5C05E0DFCFE6FFB7DBE552F9
:100360002BD0DF502F0DF3CFE9FFF4CFEAFFBA0E09
:10037000E926010EEA22160EE926000EEA22EECF49
:1003800014F0EECF15F0EECF16F0EFCF17F014C04B
:1003900005F015C006F016C007F017C008F01DECF8
:1003A00013F00750EA6AAE0FE96E010EEA22EF5031
:1003B000E66EC5EC17F0E552DF502F0DF3CFE9FFE5
:1003C000F4CFEAFFBA0EE926010EEA222D0EE92645
:1003D000000EEA22EE6AED6A10D0DF502F0DF3CF47
:1003E000E9FFF4CFEAFFBA0EE926010EEA222D0E4C
:1003F000E926000EEA22EE2AEF22DF2A70D7E55224
:10040000E552E7CFD9FF1200D9CFE6FFE1CFD9FF00
:10041000040EE126FD0EDB50020801E0A5D1FE0E20
:10042000DB50070A01E15DD1010A01E1B7D0030AFF
:1004300012E0010A01E096D10101B92B080EB95D65
:1004400001E1B96BB9C1E6FF99D9E552B9C1E6FF3F
:10045000C4D9E55287D1B9C1E9FFEA6AE9BEEA68C1
:100460002F0EEA02F3CFEAFFE902F3CFE9FFF450DF
:10047000EA26BA0EE926010EEA22160EE926000E39
:10048000EA22EECF14F0EECF15F0EECF16F0EFCF5C
:1004900017F0B9C1E9FFEA6AE9BEEA682F0EEA027D
:1004A000F3CFEAFFE902F3CFE9FFF450EA26BA0EF0
:1004B000E926010EEA221A0EE926000EEA22EECF04
:1004C00018F0EECF19F0EECF1AF0EFCF1BF018C0F6
:1004D0000AF019C00BF01AC00CF01BC00DF014C0CC
:1004E00005F015C006F016C007F017C008F0AAEC1A
:1004F00013F0010A4EE1B9C1E9FFEA6AE9BEEA6810
:100500002F0EEA02F3CFEAFFE902F3CFE9FFF4503E
:10051000EA26BA0EE926010EEA22220EE926000E8C
:10052000EA22EECF14F0EECF15F0EECF16F0EFCFBB
:1005300017F0B9C1E9FFEA6AE9BEEA682F0EEA02DC
:10054000F3CFEAFFE902F3CFE9FFF450EA26BA0E4F
:10055000E926010EEA22160EE926000EEA22EECF67
:1005600005F0EECF06F0EECF07F0EFCF08F014C0A5
:100570000AF015C00BF016C00CF017C00DF019EC06
:1005800012F008C0EDFF07C0EDFF06C0EDFF05C08B
:10059000EFFFB9C1E6FF21D9E552E4D0B9C1E9FFC7
:1005A000EA6AE9BEEA682F0EEA02F3CFEAFFE9023F
:1005B000F3CFE9FFF450EA26BA0EE926010EEA224B
:1005C000160EE926000EEA22EECF14F0EECF15F05B
:1005D000EECF16F0EFCF17F0B9C1E9FFEA6AE9BE36
:1005E000EA682F0EEA02F3CFEAFFE902F3CFE9FF50
:1005F000F450EA26BA0EE926010EEA221E0EE9267A
:10060000000EEA22EECF18F0EECF19F0EECF1AF07E
:10061000EFCF1BF018C00AF019C00BF01AC00CF095
:100620001BC00DF014C005F015C006F016C007F091
:1006300017C008F0B3EC13F0010A4EE1B9C1E9FFAD
:10064000EA6AE9BEEA682F0EEA02F3CFEAFFE9029E
:10065000F3CFE9FFF450EA26BA0EE926010EEA22AA
:10066000220EE926000EEA22EECF14F0EECF15F0AE
:10067000EECF16F0EFCF17F0B9C1E9FFEA6AE9BE95
:10068000EA682F0EEA02F3CFEAFFE902F3CFE9FFAF
:10069000F450EA26BA0EE926010EEA22160EE926E1
:1006A000000EEA22EECF05F0EECF06F0EECF07F017
:1006B000EFCF08F014C00AF015C00BF016C00CF014
:1006C00017C00DF01AEC12F008C0EDFF07C0EDFFE7
:1006D00006C0EDFF05C0EFFFB9C1E6FF7ED8E552C9
:1006E00041D0B9C1E9FFEA6AE9BEEA682F0EEA0221
:1006F000F3CFEAFFE902F3CFE9FFF450EA26BA0E9E
:10070000E926010EEA22EF0414E1B9C1E9FFEA6A21
:10071000E9BEEA682F0EEA02F3CFEAFFE902F3CF5F
:10072000E9FFF450EA26BA0EE926010EEA22EF6A42
:1007300014D0B9C1E9FFEA6AE9BEEA682F0EEA02FD
:10074000F3CFEAFFE902F3CFE9FFF450EA26BA0E4D
:10075000E926010EEA22010EEF6EB9C1E6FF3DD88F
:10076000E55200D09398939A040EE15C02E2E16AAC
:10077000E552E16EE552E7CFD9FF1200D9CFE6FF8F
:10078000E1CFD9FFFE0EDBCFB9F1E66AFEEC0FF048
:10079000E552FE0EDBCFE9FFEA6AE9BEEA682F0EFA
:1007A000EA02F3CFEAFFE902F3CFE9FFF450EA26C9
:1007B000BA0EE926010EEA22EE52E9CF14F0EACF92
:1007C00015F014C0E6FF15C0E6FF4BEC0FF0E55244
:1007D000E552E552E7CFD9FF1200D9CFE6FFE1CFCE
:1007E000D9FF56EC10F0370EE66EFEEC0FF0E55236
:1007F000FE0EDBCFE9FFEA6AE9BEEA682F0EEA02E5
:10080000F3CFEAFFE902F3CFE9FFF450EA26BA0E8C
:10081000E926010EEA22EF5006E02B0EE66EDEEC32
:100820000EF0E55205D02D0EE66EDEEC0EF0E55230
:10083000FE0EDBCFE9FFEA6AE9BEEA682F0EEA02A4
:10084000F3CFEAFFE902F3CFE9FFF450EA26BA0E4C
:10085000E926010EEA22260EE926000EEA22EF50D2
:1008600067E1290EE66EFE0EDBCFE9FFEA6AE9BE1C
:10087000EA682F0EEA02F3CFEAFFE902F3CFE9FFBD
:10088000F450EA26BA0EE926010EEA22160EE926EF
:10089000000EEA22EECF16F0EECF17F0EECF18F0F2
:1008A000EFCF19F016C005F017C006F018C007F01A
:1008B00019C008F044EC13F006C014F007C015F09E
:1008C00014C0E6FF15C0E6FF87EC10F0E552E552D4
:1008D000E5522F0EE66EFEEC0FF0E552FE0EDBCF7A
:1008E000E9FFEA6AE9BEEA682F0EEA02F3CFEAFFFF
:1008F000E902F3CFE9FFF450EA26BA0EE926010E29
:10090000EA22110EE926000EEA22EF50070DF3CF7E
:1009100014F0F4CF15F0600E1426010E152214C049
:10092000E6FF15C0E6FF4BEC0FF0E552E552CAD0EA
:10093000FE0EDBCFE9FFEA6AE9BEEA682F0EEA02A3
:10094000F3CFEAFFE902F3CFE9FFF450EA26BA0E4B
:10095000E926010EEA22260EE926000EEA22EF041D
:1009600057E1290EE66EE66AFE0EDBCFE9FFEA6A82
:10097000E9BEEA682F0EEA02F3CFEAFFE902F3CFFD
:10098000E9FFF450EA26BA0EE926010EEA22160E15
:10099000E926000EEA22EECFE6FFEECFE6FFEECF2D
:1009A000E6FFEFCFE6FFE7EC10F0146E060EE15E17
:1009B00014502F0EE66EFEEC0FF0E552FE0EDBCF6C
:1009C000E9FFEA6AE9BEEA682F0EEA02F3CFEAFF1E
:1009D000E902F3CFE9FFF450EA26BA0EE926010E48
:1009E000EA22110EE926000EEA22EF50070DF3CF9E
:1009F00014F0F4CF15F0600E1426010E152214C069
:100A0000E6FF15C0E6FF4BEC0FF0E552E5525AD079
:100A1000FE0EDBCFE9FFEA6AE9BEEA682F0EEA02C2
:100A2000F3CFEAFFE902F3CFE9FFF450EA26BA0E6A
:100A3000E926010EEA22260EE926000EEA22EF50F0
:100A4000020840E12F0EE66EFEEC0FF0E552FE0EBE
:100A5000DBCFE9FFEA6AE9BEEA682F0EEA02F3CFCC
:100A6000EAFFE902F3CFE9FFF450EA26BA0EE926DD
:100A7000010EEA22160EE926000EEA22EECF16F04B
:100A8000EECF17F0EECF18F0EFCF19F016C005F04B
:100A900017C006F018C007F019C008F01DEC13F0DD
:100AA0000750146E156AD89014361536980E142611
:100AB000010E152214C0E6FF15C0E6FF4BEC0FF047
:100AC000E552E552E552E7CFD9FF1200D9CFE6FF54
:100AD000E1CFD9FF110EE126DE6ADE6ADE6ADD6A49
:100AE000DD52DD52FE0EDB502F0DF3CFE9FFF4CFC8
:100AF000EAFFBA0EE926010EEA22280EE926000EC8
:100B0000EA22EECF14F0EFCF15F015C014F0156AFD
:100B1000FF0E1416000E1516050E14C0DBFFFE0E98
:100B2000DB502F0DF3CFE9FFF4CFEAFFBA0EE92631
:100B3000010EEA22280EE926000EEA22EECF14F07A
:100B4000EFCF15F0FF0E1416000E1516060E14C08A
:100B5000DBFF040EDB90DB82DB84070EDB6A080E12
:100B6000F36EF3CFDBFF040EDB96DB98090EDB6838
:100B70000A0EDB680B0EDB680C0EDB680D0EDB6803
:100B80000E0EDB680F0EDB68100EDB68FE0EDB500E
:100B90002F0DF3CFE9FFF4CFEAFFBA0EE926010EDD
:100BA000EA22160EE926000EEA22EECF14F0EECF6E
:100BB00015F0EECF16F0EFCF17F0FE0EDB502F0D35
:100BC000F3CFE9FFF4CFEAFFBA0EE926010EEA22DD
:100BD000120EE926000EEA22EECF18F0EECF19F041
:100BE000EECF1AF0EFCF1BF018C00AF019C00BF0CF
:100BF0001AC00CF01BC00DF014C005F015C006F0B3
:100C000016C007F017C008F0B0EC12F073EC13F048
:100C100004C0DEFF05C0DEFF06C0DEFF07C0DDFF4B
:100C2000DD52DD52FE0EDB5005080AE1D9CFE9FFA7
:100C3000DACFEAFF280EEE26000EEE22EE22EE229A
:100C4000FE0EDB502F0DF3CFE9FFF4CFEAFFBA0E13
:100C5000E926010EEA22270EE926000EEA22EF50CD
:100C6000020A01E193D0030A30E0010A01E059D100
:100C7000D9CFE9FFDACFEAFFEECF16F0EECF17F0CB
:100C8000EECF18F0EFCF19F01650E66ED950090FDD
:100C9000146EDACF15F0FE0EDB502F0DF3CFE9FF07
:100CA000F4CFEAFFBA0EE926010EEA222A0EE9265F
:100CB000000EEA22EF500F011424E96E000E1520F9
:100CC000EA6EE552E750EF6E2CD1D9CFE9FFDACFCB
:100CD000EAFFEECF16F0EECF17F0EECF18F0EFCF21
:100CE00019F01650E66ED950090F146EDACF15F0D0
:100CF000FE0EDB502F0DF3CFE9FFF4CFEAFFBA0E63
:100D0000E926010EEA222A0EE926000EEA22EF5019
:100D10000F011424E96E000E1520EA6EE552E7502B
:100D2000EF6ED9CFE9FFDACFEAFFEECF16F0EECFC4
:100D300017F0EECF18F0EFCF19F0080ED890193257
:100D4000183217321632E806F9E11650E66ED9501D
:100D5000090F146EDACF15F0FE0EDB502F0DF3CF16
:100D6000E9FFF4CFEAFFBA0EE926010EEA222A0EC5
:100D7000E926000EEA22EF280F011424E96E000E86
:100D80001520EA6EE552E750EF6ECBD0D9CFE9FFE0
:100D9000DACFEAFFEECF16F0EECF17F0EECF18F075
:100DA000EFCF19F01650E66ED950090F146EDACF56
:100DB00015F0FE0EDB502F0DF3CFE9FFF4CFEAFF65
:100DC000BA0EE926010EEA222A0EE926000EEA22D0
:100DD000EF500F011424E96E000E1520EA6EE55263
:100DE000E750EF6ED9CFE9FFDACFEAFFEECF16F08A
:100DF000EECF17F0EECF18F0EFCF19F0080ED89025
:100E00001932183217321632E806F9E11650E66E3A
:100E1000D950090F146EDACF15F0FE0EDB502F0DEE
:100E2000F3CFE9FFF4CFEAFFBA0EE926010EEA227A
:100E30002A0EE926000EEA22EF280F011424E96E9B
:100E4000000E1520EA6EE552E750EF6ED9CFE9FFAC
:100E5000DACFEAFFEECF16F0EECF17F0EECF18F0B4
:100E6000EFCF19F0100ED89019321832173216320F
:100E7000E806F9E11650E66ED950090F146EDACF84
:100E800015F0FE0EDB502F0DF3CFE9FFF4CFEAFF94
:100E9000BA0EE926010EEA222A0EE926000EEA22FF
:100EA000EF50020F0F011424E96E000E1520EA6EB8
:100EB000E552E750EF6ED9CFE9FFDACFEAFFEECF88
:100EC00016F0EECF17F0EECF18F0EFCF19F0180EA6
:100ED000D8901932183217321632E806F9E1165056
:100EE000E66ED950090F146EDACF15F0FE0EDB5006
:100EF0002F0DF3CFE9FFF4CFEAFFBA0EE926010E7A
:100F0000EA222A0EE926000EEA22EF50030F0F0113
:100F10001424E96E000E1520EA6EE552E750EF6EDC
:100F200000D0D950040FE66E000EDA20E66E8CEC8D
:100F30000DF0E552E552050EE66E78EC0CF0E55248
:100F4000110EE15C02E2E16AE552E16EE552E7CFA3
:100F5000D9FF1200D9CFE6FFE1CFD9FF020EE1267B
:100F6000DE6ADD6ADECF14F0DDCF15F0FD0EDBCFDB
:100F700016F0FE0EDBCF17F01650145C1750155804
:100F80000AE2080EE66E04EC18F0E552DF2A010EC4
:100F900001E3DB2AE7D7020EE15C02E2E16AE552F7
:100FA000E16EE552E7CFD9FF1200D9CFE6FFE1CFDE
:100FB000D9FFE652DF6ADFCF14F00C0EE76E14188B
:100FC000E8AE02D0E73402D0E750145C03E2000040
:100FD000DF2AF1D7E552E552E7CFD9FF12000F0E15
:100FE000E66EE66AB7DFE552E55200D01200050E64
:0E0FF000E66EE66AAFDFE552E55200D0120071
:020FFE00D9CF49
:10100000E6FFE1CFD9FFE652DF6A04013C6B3CC446
:101010003BF43CC43AF43CC439F43E6B3EC43DF46A
:10102000020EE66E900EE66E070EE66E60D8E55292
:10103000E552E552FE0EDBCF67F3DBCF66F3080E19
:10104000DF5C19E2DF50E76EFC0EDBCFE9FFFD0E3F
:10105000DBCFEAFFE750E926000EEA22EF50E66E0A
:10106000DF50EA6A5E0FE96E030EEA22E552E750AE
:10107000EF6EDF2AE4D70F01070E186F0F01880EFD
:10108000196F0F011A6B0F011B6B0F011C6B0F0106
:10109000080E1D6F0F011E690F011F6B0F01070E58
:1010A000006F0F01880E016F0F01080E096F0F010D
:1010B0000A690F010D6F0F010E69E66A36D8E55215
:1010C00003016891689368956897E66AAFDAE5521C
:1010D000030168A306D0050EE66E78EC0CF0E5522D
:1010E000F7D700D0E552E552E7CFD9FF1200D9CFAC
:1010F000E6FFE1CFD9FF93869394010EE66E15D8F3
:10110000E552400E606E0F01506FFE0EDB50706EA8
:10111000FD0EDB50716EFC0EDB50726E738A73989D
:1011200000D0E552E7CFD9FF1200D9CFE6FFE1CFDB
:10113000D9FFE652DF6AFE0EDB50020A0FE0030A17
:1011400006E0010A01E011D01F0E6F160ED01F0E2F
:101150006F1480096F6E800EDF6E07D01F0E6F1444
:1011600040096F6E400EDF6E00D0E00E6E14146EFC
:10117000DF50145C01E0F9D7E552E552E7CFD9FF23
:101180001200D9CFE6FFE1CFD9FFE652DF6AFB0EAE
:10119000DBCFE9FFFC0EDBCFEAFFEF6AFD0EDBCF12
:1011A000E9FFFE0EDBCFEAFFEF50070B200DF3CF78
:1011B00014F0FB0EDBCFE9FFFC0EDBCFEAFF14508F
:1011C000EF12FD0EDBCFE9FFFE0EDBCFEAFFEE52A2
:1011D000EF50E00BE838E840146EFB0EDBCFE9FF80
:1011E000FC0EDBCFEAFF1450EF12FD0EDBCFE9FF60
:1011F000FE0EDBCFEAFFEF50100B01E0010E080DF1
:10120000F3CF14F0FB0EDBCFE9FFFC0EDBCFEAFFE0
:101210001450EF12FB0EDB2AFC0E01E3DB2AFB0E5F
:10122000DBCFE9FFFC0EDBCFEAFF080EEF6EFD0E11
:10123000DBCFE9FFFE0EDBCFEAFFEE52EF50080DE9
:10124000F350E00B146EFB0EDBCFE9FFFC0EDBCF9F
:10125000EAFF1450EF12FD0EDBCFE9FFFE0EDBCFED
:10126000EAFFEE52EF50030B146EFB0EDBCFE9FFEB
:10127000FC0EDBCFEAFF1450EF12FB0EDB2AFC0E54
:1012800001E3DB2AFD0EDBCFE9FFFE0EDBCFEAFF39
:10129000020EE926000EEA22EF50E66EFB0EDBCFCF
:1012A000E9FFFC0EDBCFEAFFE552E750EF6EFB0EE5
:1012B000DB2AFC0E01E3DB2AFD0EDBCFE9FFFE0E8D
:1012C000DBCFEAFF030EE926000EEA22EF50E66EBE
:1012D000FB0EDBCFE9FFFC0EDBCFEAFFE552E75068
:1012E000EF6EFB0EDB2AFC0E01E3DB2AFD0EDBCFEB
:1012F000E9FFFE0EDBCFEAFF040EE926000EEA222C
:10130000EF50E66EFB0EDBCFE9FFFC0EDBCFEAFF12
:10131000E552E750EF6EFB0EDB2AFC0E01E3DB2A01
:10132000FD0EDBCFE9FFFE0EDBCFEAFF040EE92660
:10133000000EEA22EF50DF5C27E2FD0EDBCFE9FF73
:10134000FE0EDBCFEAFF050EE926000EEA22E9CF0A
:1013500014F0EACF15F0DF500F011424E96E000EEF
:101360001520EA6EEF50E66EFB0EDBCFE9FFFC0EB8
:10137000DBCFEAFFE552E750EF6EFB0EDB2AFC0EF7
:1013800001E3DB2ADF2ACCD700D0E552E552E7CFD4
:10139000D9FF1200D9CFE6FFE1CFD9FFE652DF6ACD
:1013A000FB0EDBCFE9FFFC0EDBCFEAFFEF50E00BDB
:1013B000E838E840146EFD0EDBCFE9FFFE0EDBCF10
:1013C000EAFF1450070BF36EF80EEF14F310EF6EF4
:1013D000FB0EDBCFE9FFFC0EDBCFEAFFEF50080B83
:1013E000E840E840E8401F0B146EFD0EDBCFE9FF3C
:1013F000FE0EDBCFEAFF1450010BF36EF346F3460B
:10140000F346F346EF0EEF14F310EF6EFD0EDBCF55
:10141000E9FFFE0EDBCFEAFFEE52EF6AFB0EDBCFF9
:10142000E9FFFC0EDBCFEAFFEF50200DF3CF14F005
:10143000FD0EDBCFE9FFFE0EDBCFEAFFEE521450CC
:10144000EF12FB0EDB2AFC0E01E3DB2AFB0EDBCFE7
:10145000E9FFFC0EDBCFEAFFEF50E840E840E84050
:101460001F0B1C0B146EFD0EDBCFE9FFFE0EDBCF56
:10147000EAFFEE521450EF12FB0EDBCFE9FFFC0E39
:10148000DBCFEAFFEF50030B146EFD0EDBCFE9FF5D
:10149000FE0EDBCFEAFFEE521450EF12FB0EDB2AFA
:1014A000FC0E01E3DB2AFB0EDBCFE9FFFC0EDBCFFA
:1014B000EAFFEF50E66EFD0EDBCFE9FFFE0EDBCF5D
:1014C000EAFF020EE926000EEA22E552E750EF6E2F
:1014D000FB0EDB2AFC0E01E3DB2AFB0EDBCFE9FF70
:1014E000FC0EDBCFEAFFEF50E66EFD0EDBCFE9FF2F
:1014F000FE0EDBCFEAFF030EE926000EEA22E552DC
:10150000E750EF6EFB0EDB2AFC0E01E3DB2AFD0E3B
:10151000DBCFE9FFFE0EDBCFEAFF040EE926000E6B
:10152000EA22EF5008080CE2FD0EDBCFE9FFFE0EC9
:10153000DBCFEAFF040EE926000EEA22080EEF6E6A
:10154000FB0EDBCFE9FFFC0EDBCFEAFFEF50E66ED0
:10155000FD0EDBCFE9FFFE0EDBCFEAFF040EE9262E
:10156000000EEA22E552E750EF6EFB0EDB2AFC0E7E
:1015700001E3DB2AFD0EDBCFE9FFFE0EDBCFEAFF46
:10158000040EE926000EEA22EF50DF5C27E2FB0E94
:10159000DBCFE9FFFC0EDBCFEAFFEF50E66EFD0E7E
:1015A000DBCFE9FFFE0EDBCFEAFF050EE926000EDA
:1015B000EA22E9CF14F0EACF15F0DF500F0114242E
:1015C000E96E000E1520EA6EE552E750EF6EFB0E55
:1015D000DB2AFC0E01E3DB2ADF2ACCD700D0E55260
:1015E000E552E7CFD9FF1200D9CFE6FFE1CFD9FF0F
:1015F000E652DF6A080EDF5C13E2DF50EA6A5E0F34
:10160000E96E030EEA22EF50E66EDF50EA6A560FEB
:10161000E96E030EEA22E552E750EF6EDF2AEAD7C1
:1016200000D0E552E552E7CFD9FF1200D9CFE6FF4F
:10163000E1CFD9FF03015181518351955369EE0EDA
:10164000526F080E556F51975199FE0EDB042BE136
:101650006651545D08E15451146E156AFE0E14185B
:1016600001E1155001E140D0560EE66E030EE66E24
:1016700080D8E552E552FF0816E04DD8000913E185
:10168000B3DF0301FE0E666F546F510EE66E030E5C
:10169000E66EBAD8E552E552E6682AD8E55203016B
:1016A0006881689321D0A0DF67C354F3510EE66EC2
:1016B000030EE66EA9D8E552E552800E03016715C8
:1016C00004E0F80E6715F80808E1689167C366F34F
:1016D00066C3E6FF0DD8E55206D068830401DB6BD4
:1016E000DC6BDD6BDE6B00D0E552E7CFD9FF12007B
:1016F000D9CFE6FFE1CFD9FF010EE66E16DDE55248
:10170000FE0EDBCF0EFFE66A10DDE55200D0E5529B
:10171000E7CFD9FF120003016651146E156AD89005
:10172000155004E6800E145C000E15580DE3685148
:10173000020B0DE16651166E176A173404E216505B
:101740008008000E175403E2800E666F01D0662BEE
:1017500066C367F36651146E156AF80E141801E13A
:10176000155004E1FE0E666F000E02D0010E00D08F
:101770001200D9CFE6FFE1CFD9FFE652DF6A080EAB
:10178000DF5C19E2DF50E76EFD0EDBCFE9FFFE0EF6
:10179000DBCFEAFFE750E926000EEA22EFCF14F094
:1017A000DF50EA6A5E0FE96E030EEA22EF50145C26
:1017B00002E1DF2AE4D7080EDF5C03E1000E1FD050
:1017C0001CD0DF50EA6A5E0FE96E030EEA22EFCF0B
:1017D00014F0DF50E76EFD0EDBCFE9FFFE0EDBCF2E
:1017E000EAFFE750E926000EEA22EF50145C03E21C
:1017F000FF0E05D002D0010E02D0000E00D0E5523F
:10180000E552E7CFD9FF1200D9CFE6FFE1CFD9FFEC
:10181000050EE126DF6A020EDF5C5CE2DF50020AA1
:1018200019E0030A0DE0010A01E01ED0D950010FB2
:10183000E96EDACFEAFF400EEE6E0F0EED6E14D0B9
:10184000D950010FE96EDACFEAFF300EEE6E0F0EBF
:10185000ED6E0AD0D950010FE96EDACFEAFF200E03
:10186000EE6E0F0EED6E00D0010EDBCF06F0020E15
:10187000DBCF07F0030E06C0DBFF040E07C0DBFF63
:10188000010EDB2A020E01E3DB2A030EDBCFE9FFA8
:10189000040EDBCFEAFFEF50080B1AE1010EDBCF9D
:1018A000E6FF020EDBCFE6FFFD0EDBCFE6FFFE0E0E
:1018B000DBCFE6FF66DCE552E552E552E552030E6A
:1018C000DBCFE9FF040EDBCFEAFFEF86010E04D089
:1018D000DF2AA1D7000E00D0146E050EE15C02E2F3
:1018E000E16AE552E16E1450E552E7CFD9FF1200EC
:1018F000D9CFE6FFE1CFD9FFFE0EDBCF14F0000118
:1019000014500401DB27000EDC23DD23DE231CD86A
:10191000D8D803016851020B13E0900E0401DB5D7F
:10192000D00EDC59030EDD59000EDE5909E3030128
:101930006891689367C366F366C3E6FFD9DEE55234
:10194000E552E7CFD9FF1200D9CFE6FFE1CFD9FFAB
:10195000050EE126DF6A020EDF5C66E2DF50010A57
:101960000DE0010A01E014D0D950010FE96EDACF81
:10197000EAFF600EEE6E0F0EED6E0AD0D950010F29
:10198000E96EDACFEAFF500EEE6E0F0EED6E00D06C
:10199000010EDBCF06F0020EDBCF07F0030E06C010
:1019A000DBFF040E07C0DBFF010EDB2A020E01E3A2
:1019B000DB2A030EDBCFE9FF040EDBCFEAFFEF509B
:1019C000800B30E0010EDBCFE6FF020EDBCFE6FF3F
:1019D000510EE66E030EE66EDDDCE552E552E55291
:1019E000E55203015251EA0A0AE0040A01E012D06A
:1019F00068B704D0010EE66E19DEE5520CD05651E0
:101A000007E1EA0E575D04E1585102E118D801D010
:101A100030D801D02ED8030EDBCFE9FF040EDBCF88
:101A2000EAFFEF9EDF2A97D700D0050EE15C02E2C5
:101A3000E16AE552E16EE552E7CFD9FF12000301FA
:101A400068A103D0FE0E546F02D066C354F35181D7
:101A500051835195EE0E526F5369080E556FC4DDD8
:101A6000510EE66E030EE66ECFDEE552E55200D073
:101A70001200080E04013E5D21E20D0EE66E510ECD
:101A8000E66E030EE66E3C510D0DF3CF14F0F4CF6D
:101A900015F0D10E1426030E152214C0E6FF15C052
:101AA000E6FFB4D8166E050EE15E165004013C2B1D
:101AB0003E2B080E3C5D01E13C6B01D0688500D0F7
:101AC0001200D9CFE6FFE1CFD9FFE652DF6A040169
:101AD0003D511CE0030EDF5C19E239510D0DF3CFCF
:101AE00014F0F4CF15F0690E1426030E152214C05D
:101AF000E6FF15C0E6FF88DEE552E55204013D072A
:101B0000392B080E395D01E1396BE1D700D0E55280
:101B1000E552E7CFD9FF1200D9CFE6FFE1CFD9FFD9
:101B2000080E04013D5D02E1010E33D00D0EE66E9C
:101B3000FD0EDBCFE6FFFE0EDBCFE6FF3A510D0DCB
:101B4000F3CF14F0F4CF15F0690E1426030E15220E
:101B500014C0E6FF15C0E6FF59D8166E050EE15E0B
:101B6000165004013A510D0DF3CFE9FFF4CFEAFF0F
:101B7000690EE926030EEA22030EE926000EEA2288
:101B8000EF6A3D2B3A2B080E3A5D01E13A6B000EED
:101B900000D0E552E7CFD9FF1200D9CFE6FFE1CF61
:101BA000D9FF04013E5102E1020E24D00D0EE66E73
:101BB0003B510D0DF3CF14F0F4CF15F0D10E1426D8
:101BC000030E152214C0E6FF15C0E6FFFD0EDBCFA5
:101BD000E6FFFE0EDBCFE6FF19D8166E050EE15EBE
:101BE000165004013E073B2B080E3B5D01E13B6BA9
:101BF000000E00D0E552E7CFD9FF120004013E519C
:101C000000D0120004013D5100D01200D9CFE6FFF0
:101C1000E1CFD9FFE652DF6AFA0EDB50DF5C1FE24C
:101C2000DF50E76EFB0EDBCFE9FFFC0EDBCFEAFFF8
:101C3000E750E926000EEA22EF50E66EDF50E76E2D
:101C4000FD0EDBCFE9FFFE0EDBCFEAFFE750E92612
:101C5000000EEA22E552E750EF6EDF2ADDD700D012
:101C6000E552E552E7CFD9FF12000F01336B0F01A8
:101C7000346B0F016B0E316F0F01CB0E326F0F0102
:101C8000080E356F0F01AA0E366F0F01CC0E376F9D
:101C90000F01550E386F0F01396B0F013A6B0F01B1
:101CA0003B6B0F013C6B0F013D6B0F013087120046
:101CB000D9CFE6FFE1CFD9FF0F0E81169316929E82
:101CC00094929490899E8B928B90EFEC07F0300E5B
:101CD000E66E4DD8E552210EE66E04EC18F0E552A2
:101CE000300EE66E44D8E552010EE66E04EC18F0B4
:101CF000E552320EE66E3BD8E55287D8000901E086
:101D0000FCD783D8000901E0FCD7FE0EDBCFE6FF4D
:101D10002ED8E5527AD8000901E0FCD7080EE66E0D
:101D200026D8E55272D8000901E0FCD70F0EE66E06
:101D30001ED8E5526AD8000901E0FCD7010EE66E14
:101D400016D8E55262D8000901E0FCD7040EE66E11
:101D50000ED8E5525AD8000901E0FCD7800EE66E95
:101D60004DD9E55200D0E552E7CFD9FF1200D9CFC7
:101D7000E6FFE1CFD9FF0F0E93168116FE0EDB5062
:101D8000F00B8112899E8B92D5EC07F08B80D5ECFD
:101D900007F08B900F0E8116FE0EDB38F00BF00B68
:101DA0008112D5EC07F08B80D5EC07F08B90F00E0C
:101DB000931200D0E552E7CFD9FF1200D9CFE6FF4A
:101DC000E1CFD9FF0F0E93168116FE0EDB50F00BFC
:101DD00081128B82899ED5EC07F08B80D5EC07F0C1
:101DE0008B900F0E8116FE0EDB38F00BF00B81127C
:101DF000D5EC07F08B80D5EC07F08B90F00E9312AA
:101E000000D0E552E7CFD9FF1200898E8B92D5EC36
:101E100007F08B80D5EC07F081AE0BD08B90D5EC22
:101E200007F08B80D5EC07F08B90899E010E0BD0CC
:101E30000AD08B90D5EC07F08B80D5EC07F08B9017
:101E4000899E000E00D01200D9CFE6FFE1CFD9FF66
:101E5000FD0EDBCFF6FFFE0EDBCFF7FF0800F550DF
:101E600015E0D3DF000901E0FCD7FD0EDBCFF6FF64
:101E7000FE0EDBCFF7FF0800F550E66E9FDFE55260
:101E8000FD0EDB2AFE0E01E3DB2AE2D700D0E5528D
:101E9000E7CFD9FF1200D9CFE6FFE1CFD9FFFD0E82
:101EA000DBCFE9FFFE0EDBCFEAFFEF5036E0FD0EA1
:101EB000DBCFE9FFFE0EDBCFEAFFEF50146E156AB1
:101EC000153404E21450BF08000E155416E2FD0E3E
:101ED000DBCFE9FFFE0EDBCFEAFFEF50E96EEA6AE7
:101EE000C00EE95E000EEA5A910EE926040EEA22BF
:101EF000EF50E66E63DFE5520AD0FD0EDBCFE9FF5F
:101F0000FE0EDBCFEAFFEF50E66E58DFE552FD0E26
:101F1000DB2AFE0E01E3DB2AC2D700D0E552E7CF71
:101F2000D9FF1200D9CFE6FFE1CFD9FFE652898E63
:101F30008B92D5EC07F08B80F00E8114DF6E8B90C6
:101F4000D5EC07F08B80D5EC07F081380F0B0F0B29
:101F5000DF128B90899E7F0EDF1400D0E552E55290
:101F6000E7CFD9FF1200D9CFE6FFE1CFD9FFE65284
:101F7000898E8B82D5EC07F08B80D5EC07F0F00EC4
:101F80008114DF6E8B90D5EC07F08B80D5EC07F0D9
:101F900081380F0B0F0BDF128B908B92899EDF50D5
:101FA00000D0E552E552E7CFD9FF1200D9CFE6FFC6
:101FB000E1CFD9FF0F0E93168116FE0EDB504009BC
:101FC000F00B8112899E8B92D5EC07F08B80D5ECBB
:101FD00007F08B900F0E8116FE0EDB38F00BF00B26
:101FE0008112D5EC07F08B80D5EC07F08B90F00ECA
:101FF000931200D0E552E7CFD9FF1200D9CFE6FF08
:10200000E1CFD9FF0F0E93168116FE0EDB5080092B
:10201000F00B8112899E8B92D5EC07F08B80D5EC6A
:1020200007F08B900F0E8116FE0EDB38F00BF00BD5
:102030008112D5EC07F08B80D5EC07F08B90F00E79
:10204000931200D0E552E7CFD9FF1200D9CFE6FFB7
:10205000E1CFD9FF110EE126D9CFE9FFDACFEAFFB0
:10206000200EEE6EEE6EEE6EEE6EEE6EEE6EEE6EBE
:10207000EE6EEE6EEE6EEE6EEE6EEE6EEE6EEE6E80
:10208000EE6EEE6AE66ABADFE552D9CFE6FFDACF46
:10209000E6FF01DFE552E552110EE15C02E2E16A82
:1020A000E552E16EE552E7CFD9FF1200D9CFE6FF46
:1020B000E1CFD9FF110EE126D9CFE9FFDACFEAFF50
:1020C000200EEE6EEE6EEE6EEE6EEE6EEE6EEE6E5E
:1020D000EE6EEE6EEE6EEE6EEE6EEE6EEE6EEE6E20
:1020E000EE6EEE6A280EE66E89DFE552D9CFE6FF86
:1020F000DACFE6FFD0DEE552E552110EE15C02E2F6
:10210000E16AE552E16EE552E7CFD9FF1200D9CF7F
:10211000E6FFE1CFD9FF050EE126D9CFE6FFDACF02
:10212000E6FFFD0EDBCFE6FFFE0EDBCFE6FFE2ECC7
:1021300015F0E552E552E552E552040E146EFC0E20
:10214000DBCFE7FF1450E726FC0EE7CFDBFFD950CB
:10215000FD0FE96EFF0EDA20EA6E090ED880EE540C
:10216000000EED5402E2FC0EDB06D950FD0FE96EC5
:10217000FF0EDA20EA6E630ED880EE54000EED54A6
:1021800002E2FC0EDB06D950FD0FE96EFF0EDA20ED
:10219000EA6EE70ED880EE54030EED5402E2FC0E18
:1021A000DB06FC0EDBCFE6FF29DFE552D9CFE6FFE9
:1021B000DACFE6FF70DEE552E552050EE15C02E2A1
:1021C000E16AE552E16EE552E7CFD9FF1200D9CFBF
:1021D000E6FFE1CFD9FF090EE126DE6ADD6A020ED5
:1021E000DB6A030EDB6AFB0EDBCF05F0FC0EDBCFF8
:1021F00006F0FD0EDBCF07F0FE0EDBCF08F044EC5F
:1022000013F006C0DEFF07C0DDFFFB0EDBCF18F0CA
:10221000FC0EDBCF19F0FD0EDBCF1AF0FE0EDBCF8C
:102220001BF0000EDFCF06F0010EDBCF07F004EC51
:1022300012F005C01CF006C01DF007C01EF008C05B
:102240001FF01CC00AF01DC00BF01EC00CF01FC018
:102250000DF018C005F019C006F01AC007F01BC039
:1022600008F019EC12F005C014F006C015F007C014
:1022700016F008C017F00A6A0B6A200E0C6E410EA9
:102280000D6E14C005F015C006F016C007F017C09B
:1022900008F0B0EC12F044EC13F0020E06C0DBFFC5
:1022A000030E07C0DBFF040E146EF90EDBCFE7FF51
:1022B0001450E726F90EE7CFDBFFD9CFE9FFDACFDD
:1022C000EAFF090ED880EE54000EED5402E2F90E3A
:1022D000DB06D9CFE9FFDACFEAFF630ED880EE54F0
:1022E000000EED5402E2F90EDB06D9CFE9FFDACF9A
:1022F000EAFFE70ED880EE54030EED5402E2F90E29
:10230000DB06020E146EF90EDBCFE7FF1450E75E1A
:10231000F90EE7CFDBFFF90EDBCFE6FF6FDEE5520C
:10232000D950040FE66E000EDA20E66EDECFE6FF2F
:10233000DDCFE6FFE2EC15F0E552E552E552E5525D
:10234000D950040FE66E000EDA20E66EA4DDE552E9
:10235000E552F90EDB2AD9CFE9FFDACFEAFF090E01
:10236000D880EE54000EED5402E2F90EDB2AD9CFEC
:10237000E9FFDACFEAFF630ED880EE54000EED5489
:1023800002E2F90EDB2AD9CFE9FFDACFEAFFE70E46
:10239000D880EE54030EED5402E2F90EDB2AF90E5A
:1023A000DBCFE6FF2BDEE5522E0EE66E07DDE552B3
:1023B000F90EDB2AF90EDBCFE6FF20DEE552D9501D
:1023C000040FE66E000EDA20E66E020EDBCFE6FFAB
:1023D000030EDBCFE6FFE2EC15F0E552E552E552E5
:1023E000E552D950040FE66E000EDA20E66E53DD9A
:1023F000E552E552090EE15C02E2E16AE552E16E66
:08240000E552E7CFD9FF1200FD
:082408000F9E08D00F9E07AEE5
:1024100005D0066C071EE86A07220F8E07C001F080
:1024200006C000F0136A126A8E0E026E036A2DEF68
:1024300014F00D7E0F6A69EC14F081EC14F00FB605
:1024400011EF14F00FA20AD00FAA03D00FBE11EFA4
:1024500014F00FA41DEF14F01AEF14F00FAA05D01A
:102460000FAC1DEF14F01AEF14F00FA00AD00FA854
:1024700008D00FBE04D00FA402D026EF14F02AEF2C
:1024800014F0126A036A0D50085C116E10E305C067
:1024900013F006C000F007C001F008C010F00AC039
:1024A00005F00BC006F00CC007F00F3A09D00AC0C7
:1024B00013F00BC000F00CC001F00DC010F0116C57
:1024C0000F9E0FBC0F8E10C002F00FB059EF14F02A
:1024D0001A0E116059EF14F0026A086A0FA408D0AE
:1024E000056C061E071E081EE86A0622072208223F
:1024F0000FAC08D0136C001E011E021EE86A0022F9
:1025000001220222046A115207E00834073206321F
:1025100005320432112EF9D7055013260650002239
:10252000075001220850022204C012F00F9E02AE92
:102530000BD0126C131E001E011E021EE86A13222D
:102540000022012202220F8E02A006D0D880013282
:10255000003213321232102A10C002F02DEF14F0A4
:102560000F6A69EC14F081EC14F00FB611EF14F05F
:102570000FA205D00FB811EF14F018EF14F00FAA46
:1025800005D00FB011EF14F018EF14F00FB002D017
:102590000FA802D024EF14F0036A0D500824026E35
:1025A000E86A03227E0E025EE86A035A126A136A20
:1025B000006A016A0C500702F4CF01F0F3CF00F07B
:1025C0000B500702F3501326F4500022000E012294
:1025D0000C500602F3501326F4500022000E012284
:1025E0000A500702F3501226F4501322000E002264
:1025F00001220B500602F3501226F4501322000E53
:10260000002201220C500502F3501226F45013222E
:10261000000E002201220A500602F4501226000E7B
:102620001322002201220B500502F4501226000E44
:102630001322002201222DEF14F00F6A69EC14F02E
:102640000FB627EF13F00FA20AD00FB403D07F0EFE
:10265000076E19D0800E076E16D0076A14D00FB01F
:10266000FCD7870E0860F1D77E0E0864F6D7860E79
:10267000085C04E0D8900732082AF9D70FA403D0E9
:10268000076C07AEEAD712000F6A69EC14F00FB6B8
:102690004EEF13F00FA20ED00FB405D07F0E076ED1
:1026A000FF0E066E1FD0800E076E066A1BD0076AEB
:1026B000066A18D00FB0FBD78F0E0860EDD77E0EDC
:1026C0000864F5D78E0E085C05E0D8900732063214
:1026D000082AF8D70FA406D0066C071EE86A07225E
:1026E00007AEE5D712000F6A69EC14F00FB67DEF64
:1026F00013F00FA20FD00FB407D07F0E076EFF0E9E
:10270000066E056E046E25D0800E076E01D0076A36
:10271000000EF6D70FB0FBD7046A9F0E0860EBD708
:102720007E0E0864F4D79E0E085C07E0D89007324E
:10273000063205320432082AF6D70FA40AD0046CF8
:10274000051E061E071EE86A05220622072207AE9E
:10275000DED71200BCEC13F00FB6000C0FB0000C6B
:102760000FB4000C010CBCEC13F00FB6000C0FB052
:10277000000C0FA4000C010C0F6A69EC14F081EC42
:1027800014F00FB612000FAE08D00FA004D00FA89F
:1027900002D00F8012000F9012000D50085C0BE168
:1027A0000C50075C08E10B50065C05E10A50055C23
:1027B00002E10F801200D8A002D00F8E10D0085076
:1027C0000DC008F00D6E07500CC007F00C6E0650DF
:1027D0000BC006F00B6E05500AC005F00A6E0D50D6
:1027E000085C10E0FF0F09E00F900FB403D00FAEAC
:1027F0000F8412000FAE0F9412000D2AD8900C32E5
:102800000B320A320A50055E0B50065A0C50075A1A
:1028100007BEEAD7D890053606360736082EF8D711
:10282000C8D77F0E086EFF0E076E066E056E12008B
:102830007F0E0FBEFF0E086E02D07F0E086E800E58
:10284000076E066A056AF3D70FAE04D0800E086ED5
:10285000076AF7D7086A076AF4D701500010131007
:102860001210F8E003BEF0D701BE0CD002500310E6
:10287000EBE0D89012361336003601360206D8A0A7
:102880000306F2D70350D4E10228D2E012AE11D0F1
:102890007F0E121402E113A00CD0132AE86A002262
:1028A000012207E3D880013200321332022A0228C3
:1028B000BFE00250C9E013C005F000C006F00134CB
:1028C000076E0230086E0732089E0FBE088E17EFA3
:1028D00014F00736083602E30F840F7E06E10F80FE
:1028E000086A076A066A056A1200082803E0D880A9
:1028F00007321200D890073202E10F8212000F86D1
:1029000012000C360D3602E30F8C0F7E06E10F88A5
:102910000D6A0C6A0B6A0A6A12000D2803E0D8805F
:0E2920000C321200D8900C32EAE10F8A12003D
:02292E00D9CFFF
:10293000E6FFE1CFD9FFE652DF6ADF6A100EDF5C07
:102940002DE2DF50050DF3CFE9FFF4CFEAFF3F0E94
:10295000E926040EEA22010EEF6EDF50050DF3CFDB
:10296000E9FFF4CFEAFF3F0EE926040EEA22030E48
:10297000E926000EEA22EF6ADF50050DF3CFE9FFEA
:10298000F4CFEAFF3F0EE926040EEA22040EE92600
:10299000000EEA22010EEF6EDF2AD0D70401576B3A
:1029A0005C6B616B666B10EC17F0870EE66EDCEC0F
:1029B00017F0E552FD0EDBCF8FF4FE0EDBCF90F467
:1029C000E552E552E7CFD9FF1200D9CFE6FFE1CFBC
:1029D000D9FF080EE126DF6A010EDB6A020EDB6A10
:1029E000030EDB6A040EDB6A010EF36E050EF3CFF5
:1029F000DBFF060EDB6ADF6A100EDF5C01E389D0C5
:102A0000050EDBCF16F0060EDBCF17F0DF5016C039
:102A100014F017C015F005E0D89014361536E80408
:102A2000FBE114C0E6FF15C0E6FF1FEC17F0E5520E
:102A3000E55243EC18F03BEC18F0000901E0FBD73D
:102A400032EC18F0F3CFDFF4F4CFE0F40401640EBD
:102A5000D880DF55000EE05506E2020EF36E070E39
:102A6000F3CFDBFF05D0010EF36E070EF3CFDBFFD4
:102A7000DF50050DF3CFE9FFF4CFEAFF3F0EE92663
:102A8000040EEA22EFCF14F0070EDB50145C3FE097
:102A9000070EDBCFE6FFDFCFE6FF05D090C4FAFFDD
:102AA00004018F51F96EFADFE552E552DF50050D52
:102AB000F3CFE9FFF4CFEAFF3F0EE926040EEA2246
:102AC000070EDBCFEFFFDB50020821E1DF50050DE1
:102AD000F3CFE9FFF4CFEAFF3F0EE926040EEA2226
:102AE000030EE926000EEA22EF1CE66EDF50050D0C
:102AF000F3CFE9FFF4CFEAFF3F0EE926040EEA2206
:102B0000030EE926000EEA22E552E750EF6EDF2AB7
:102B100073D7DF6A100EDF5C41E2DF50050DF3CFA3
:102B2000E9FFF4CFEAFF3F0EE926040EEA22030E86
:102B3000E926000EEA22EF502FE0DF50050DF3CF1B
:102B4000E9FFF4CFEAFF3F0EE926040EEA22040E65
:102B5000E926000EEA22EF501FE0050EDBCF18F049
:102B6000060EDBCF19F0DF5018C016F019C017F0B1
:102B700005E0D89016361736E804FBE1030EDB506B
:102B80001610146E040EDB501710156E030E14C0D1
:102B9000DBFF040E15C0DBFFDF2ABCD7030EDBCF43
:102BA000E6FF040EDBCFE6FF1FEC17F0E552E5521F
:102BB000080EE15C02E2E16AE552E16EE552E7CF20
:042BC000D9FF120027
:0C2BC400D9CFE6FFDACFE6FFFA0EE3CF30
:102BD000D9FFFB0EE3CFDAFFFD0EE35209E72D0E1E
:102BE000DE6EFC0EE31EE32AFD0ED8B4E306E31E00
:102BF000E652E652E652FD0EE124E76EFF0EE220B9
:102C0000E46EE652F70EE3CFE6FFF70EE3CFE6FF02
:102C100052EC16F0F90EE124E96EFF0EE220EA6EA6
:102C200042EC16F00AE13FEC16F009E142EC16F036
:102C300008E13FEC16F007E108D04DEC16F048EC47
:102C400016F04DEC16F048EC16F04DEC16F0DE6A7E
:102C5000F90EE126FF0EE222FF0EE3CFDAFFE55286
:102C6000FF0EE3CFD9FFE552FC0EE124E96EFF0E23
:102C7000E220EA6EEECFF3FFEFCFF4FF1200EF3861
:102C80000F0B1200EF500F0B02E1EE52D88412002E
:102C9000EF380F0B300FDE6E1200EE500F0B300FBF
:102CA000DE6E1200FC0EE3CFE9FFFD0EE3CFEAFF7C
:102CB000100EE66EEE6AEE6AEF6AD890FD0EE3360D
:102CC000FE0EE336ED36ED36EF36FF0EE30609E095
:102CD00073EC16F0EE5273EC16F0EE5273EC16F045
:102CE000EDD7E56E1200030EEF24E8B6EF6E300E5E
:082CF000EF24E8BEEF6E000CBA
:082CF8000E0EF66E000EF76EE1
:102D0000000EF86E04010900F550D66F0900F55069
:102D1000D76F03E1D66701D03DD00900F550D16FE0
:102D20000900F550D26F0900F550D36F0900090072
:102D3000F550E96E0900F550EA6E09000900090036
:102D4000F550D46F0900F550D56F09000900F6CF92
:102D5000D8F4F7CFD9F4F8CFDAF4D1C4F6FFD2C45F
:102D6000F7FFD3C4F8FF0401D45302E1D55307E0C1
:102D70000900F550EE6ED407F8E2D507F9D7D8C4AC
:102D8000F6FFD9C4F7FFDAC4F8FF0401D607000E36
:062D9000D75BBFD7120063
:0A2D9600D9CFE6FFDACFE6FFE1CF68
:102DA000D9FFE2CFDAFFAC6AAB6AFD0EDBB0AC88CC
:102DB000DBA202D0AC8CAB8CDBB4AC8EDBA602D039
:102DC000AB8801D0AB8ADBB8AC849E98DBBAAB860B
:102DD000DBAC02D09D8A01D09D9A9E9ADBAE02D0D8
:102DE0009D8801D09D98FB0EDB50AF6EFB0EFC0E54
:102DF000DBCF15F015C014F0156A1450B06EAC8A14
:102E0000AB8E949C948EAC50100B04E0AC50800BB5
:102E100001E1948CE552E5CFDAFFE7CFD9FF12004C
:102E200093988A98939A8A9A949A8B9A929A899A62
:102E3000000EE66EE66A03D8E552E5521200D9CFDD
:102E4000E6FFE1CFD9FFE652100EDF6EDFCF14F0C0
:102E5000000EE76E1418E8AE02D0143403D0E75029
:102E6000D880145417E2FE0EDB50800B02E08A88F3
:102E700001D08A98D950FD0FE96EFF0EDA20EA6E74
:102E8000010ED890EE36ED36E806FBE18A8A8A9A82
:102E9000DF06DCD78B8A8B9AE552E552E7CFD9FF64
:022EA00012001E
:0E2EA200D9CFE6FFDACFE6FFE1CFD9FFE2CFCE
:102EB000DAFFC26AC06AFC0EDB407F0B3C0BC26EBD
:102EC000FC0EDB38F00B300B146EFB0EDB500F0BDF
:102ED0001410C16EFD0EDB50040DF350380B156E4F
:102EE000FD0EDB380F0B070B146EFD0EDB50800B55
:102EF00014101510C06EFC0EDBAE03D09E9C9D8C92
:102F0000F28CC280E552E5CFDAFFE7CFD9FF12009D
:102F1000D9CFE6FFDACFE6FFE1CFD9FFE2CFDAFF84
:102F2000FD0EDB507E0BCD6EFD0EDBAC02D0CD8EE8
:102F300001D0CD9ECF6ACE6A9E90DBAE02D09D803E
:102F400001D09D90CD80E552E5CFDAFFE7CFD9FFE4
:022F500012006D
:0E2F5200D9CFE6FFDACFE6FFE1CFD9FFE2CF1D
:102F6000DAFFE652E652FC0EDBCFDEFFDBCFDDFF01
:102F7000010EDB50CF6EDF50CE6EE552E552E552CA
:0A2F8000E5CFDAFFE7CFD9FF12001A
:062F8A00D9CFE6FFDACF0B
:102F9000E6FFE1CFD9FFE2CFDAFFACAC04D0AC90D2
:102FA0000401E1B3AC80FD0EDB50AD6EE552E5CF20
:082FB000DAFFE7CFD9FF1200A0
:082FB800D9CFE6FFDACFE6FFF6
:102FC000E1CFD9FFE2CFDAFFC30EC214146EFD0EBB
:102FD000DB407F0B3C0B1410C26EE552E5CFDAFFED
:062FE000E7CFD9FF12004B
:0A2FE600D9CFE6FFDACFE6FFE1CF16
:102FF000D9FFE2CFDAFFFD0EDB50B86EE552E5CF28
:08300000DAFFE7CFD9FF12004F
:08300800FF0EE350206E480E9C
:1030100001D04C0EE76EE72EFED7E76AE72EFED70B
:08302000202EF7D7000012007A
:08302800000EF36E00EE00F053
:10303000060E01D81200EA6002D0EE6AFCD7F35007
:08304000E9601200EE6AFCD702
:0830480010EE60F020EE60F0D4
:10305000F86A0F9C7CEC16F003EC00F076EC00F0C4
:04306000FBD7120088
:0C306400C450176E166AC3501610F36EAD
:0630700017C0F4FF12007E
:0A307600C250020B01E0010E12002F
:06308000C2909D9C1200AD
:04308600C2821200F0
:06308A00EEE12FECE8ED81
:1030900000EB2FF720202000C22020202020002538
:1030A000202020202000EAEC2FF7202000E3F0E091
:1030B000E42E2000EACFE020202000202020202045
:1030C000200030003100320033003400350036007B
:1030D0004C004D0048004E0001020408102040C181
:1030E000C2C4C8000120CEE12E20E4E2E8E3E0F211
:1030F000E5EBFF200000000000410000FA44000062
:10310000000000C05A4500004842000104F00332AC
:103110000000000120D0E0F1F5EEE420F2EEEFEB4C
:10312000E8E2E000010000A0410000000000000013
:1031300000000048420000003F0101F2FE00640070
:1031400000000120CDE0EFF02E20E1E0F2E0F0E51C
:10315000E82000020000A041000000000000000084
:10316000000048420000003F0101F7FE06E80300AE
:10317000000120D3F02E20EEF5EB2E20E6E8E4EA65
:103180002E000300002040000000000000000000AE
:1031900000C8420000803F0000EFFE07F40100007D
:1031A0000120D1EAEEF0EEF1F2FC202020202020D8
:1031B0000004000080430000000000000000000048
:1031C00020430000803F00016CFE06320000000139
:1031D00020D2E5ECEFE5F0E0F2F3F0E02020200073
:1031E000050000803F00008C420000000000000C41
:1031F000430000A0400000EEFE00E80300000120B4
:10320000C4E0E2EBE5EDE8E52020202020200006E8
:103210000000803E0000FA430000000000803B44B4
:10322000000048420000EFFE03F40100000120D23C
:10323000E5EA2E20EFE5F0E5E4E0F7E02000070006
:1032400000803F000000000000000000002041005E
:1032500000803F0201000000F401000000000000B7
:10326000000000000000000000000000000000005E
:0B327000000000000000000000000053
:05327B0041A042A1E0AA
:1032800045A3A4A5A64BA74D484FA8504354A9AAAF
:1032900058E1ABACE2ADAE62AFB0B161B2B3B4E392
:1032A00065B6B7B8B9BABBBCBD6FBE7063BF79E4D1
:0B32B00078E5C0C1E6C2C3C4C5C6C7B4
:0232BB00000011
:0332BD000000000E
:0132C000000D
:020000040030CA
:0100010008F6
:010003001EDE
:0100050000FA
:010006008178
:00000001FF
